:020000023000CC
:10E00000C6C1000050C200004EC200004CC2000059
:10E010004AC2000048C2000046C2000044C20000DC
:10E0200042C2000040C200003EC200003CC20000EC
:10E030003AC2000038C2000036C2000034C20000FC
:10E0400032C2000030C200002EC200002CC200000C
:10E050002AC2000028C2000026C2000024C200001C
:10E0600022C2000020C200001EC200001CC200002C
:10E070001AC2000018C2000016C2000014C200003C
:10E0800012C2000010C200000EC200000CC200004C
:10E090000AC2000008C2000006C2000004C200005C
:10E0A00002C2000000C20000FEC10000FCC100006E
:10E0B000FAC10000F8C10000F6C10000F4C1000080
:10E0C000F2C10000F0C10000EEC10000ECC1000090
:10E0D000EAC10000E8C10000E6C10000E4C10000A0
:10E0E000E2C100005374617274207573657220611F
:10E0F00070700053454D426F6F7420666F722041FF
:10E10000726475696E6F204D656761323536302CEB
:10E110002056657273696F6E20302E36004D61692E
:10E120006E3A20004E6574776F726B20696E697469
:10E1300020646F6E650009202020204D41433A2065
:10E140000009476174657761793A200009205375A9
:10E15000626E65743A200009416464726573733AB3
:10E1600020004275696C742D696E20736574746942
:10E170006E677300454550524F4D20736574746946
:10E180006E677300204E65743A200013000500008E
:10E19000496E76616C696420696D616765206669A6
:10E1A0006C650008000500004572726F720009007E
:10E1B00005000346756C6C000A000500004F706393
:10E1C0006F64653F00496E697420736F636B65749B
:10E1D00020746F20706F7274200009446174615064
:10E1E0006F72743A200054465450207365727665FD
:10E1F0007220696E697420646F6E65005265737079
:10E200006F6E73652073656E740053656E7420467F
:10E21000696E616C2041434B0053656E742041432D
:10E220004B00496E76616C6964206F70636F646542
:10E2300020004572726F720041636B6E6F776C6580
:10E2400064676500466C617368696E6720636F6D13
:10E25000706C657465005061636B6574206C656EED
:10E260006774682061646A757374656420746F20D4
:10E270000057726974696E67206461746120667208
:10E280006F6D20616464726573732000466C617306
:10E29000682069732066756C6C004368616E676501
:10E2A0006420746F20706F72742000446174612068
:10E2B000626C6F636B00577269746520726571756B
:10E2C000657374005265616420726571756573745D
:10E2D0000020616E642064617461206C656E6774F7
:10E2E0006820002077697468206F70636F64652010
:10E2F000005468697320697320626C6F636B20003F
:10E300005365742075702072657475726E20616437
:10E310006472657373004F766572666C6F77005038
:10E32000726F63657373696E67207061636B657488
:10E33000206F662073697A652000546674703A20F5
:10E340000020696E7374656164206F6620307839CF
:10E35000340020696E7374656164206F66203078C4
:10E36000304300207769746820004661696C6564F9
:10E37000206174200056616C696420696D61676575
:10E380000056616C643A20003078000D0A001124B8
:10E390001FBECFEFD1E2DEBFCDBF01E00CBF12E068
:10E3A000A0E0B2E0E0E6F6EF03E00BBF02C00790AA
:10E3B0000D92A032B107D9F71BBE12E0A0E2B2E085
:10E3C00001C01D92AC32B107E1F702D00D942EFBD3
:10E3D00084B714BE98E10FB6F89490936000109241
:10E3E00060000FBE81FD01C03BD68FEF95EAAEE025
:10E3F00081509040A040E1F700C00000112485E06A
:10E400008093810080E090E00F9418FB882329F02E
:10E4100080E090E060E00F9420FB81E090E00F94BA
:10E4200018FB843029F081E090E064E00F9420FB39
:10E43000A5D58DE191EE63EF70EE46D596D0A4D0D0
:10E4400090D310922A0210922B02C3E0CC24DD2438
:10E45000760180912A02882319F4B8D3882301F128
:10E4600080912B02882319F4AFD58823C9F0E1D518
:10E470008823A1F082E090E00F9418FB8E3E81F09B
:10E4800080912B02813051F4F601E0925B00C09341
:10E490005700E89566D3C4D510922B02A0D5D9CFEA
:10E4A000DFD580E090E0ACCD20E52CBD2C9820EFAE
:10E4B0002EBD0DB407FEFDCF292F33272EBD0DB481
:10E4C00007FEFDCF8EBD0DB407FEFDCF4EBD0DB4D2
:10E4D00007FEFDCF2C9A1CBC0895EF92FF921F936C
:10E4E000CF93DF93EC01162F7A01452F5527DCDF00
:10E4F000CE010196612F4E2DD7DFDF91CF911F9175
:10E50000FF90EF90089520E52CBD2C982FE02EBDB4
:10E510000DB407FEFDCF292F33272EBD0DB407FE06
:10E52000FDCF8EBD0DB407FEFDCF1EBC0DB407FEA2
:10E53000FDCF2C9A8EB51CBC08950F931F93CF93DB
:10E54000DF93EC01162FDFDF082FCE010196612F3C
:10E55000DADF202F30E0322F222790E0822B932B1E
:10E56000DF91CF911F910F91089587E085B984B90C
:10E5700023982C9A249AA59A9D9A2F9A279A81E5F6
:10E580008CBD81E08DBD08950F931F93CF93DF93D2
:10E5900083E090E00F9418FB8535C9F484E090E0A7
:10E5A0000F9418FB8A3A99F401E012E0C5E0D0E03C
:10E5B000CE010F9418FBF80181938F012196C7318A
:10E5C000D105B1F784E891EE64E771EE04C084E808
:10E5D00091EE62E671EE78D484E891EE67E571EE33
:10E5E00073D4CFE0D2E01FE0699170E080E090E06A
:10E5F00042E09CD4123111F08EE2CDD41F5F133172
:10E6000099F784E891EE6CE471EE5ED4C5E0D2E057
:10E6100015E0699170E080E090E042E087D4183026
:10E6200011F08EE2B8D41F5F193099F784E891EEAB
:10E6300061E471EE49D4C1E0D2E001E0699170E09B
:10E6400080E090E042E072D4043011F08EE2A3D476
:10E650000F5F053099F784E891EE66E371EE34D4EC
:10E66000C9E0D2E0699170E080E090E042E05ED4E1
:10E670001E3011F08EE28FD41F5F1F3099F700E03B
:10E6800012E0C0E0D0E0F80141918F01CE0160E0DE
:10E690000BDF2196CC31D105B1F784E891EE64E22D
:10E6A00071EE12D4DF91CF911F910F910895CF9306
:10E6B000DF93EC018AE393EE65EC71EE05D4BE01C5
:10E6C00080E090E044E032D481E097E06CE640E105
:10E6D000EBDE81E097E068E616DF8823D1F782E081
:10E6E00097E06CE64FEFE0DE80E097E06CE642E01A
:10E6F000DBDE84E097E06CE6AE01EFDE81E097E0E0
:10E700006CE641E0D1DE81E097E068E6FCDE88233C
:10E71000D1F783E097E068E6F6DE823229F081E007
:10E7200097E06CE640E1C0DE83E097E068E6EBDE70
:10E730008232A9F6DF91CF9108952F923F924F92A6
:10E740005F926F927F928F929F92AF92BF92CF9281
:10E75000DF92EF92FF920F931F93CF93DF93CDB78A
:10E76000DEB7CC50D240DEBFCDBF8C018AE393EE42
:10E770006FE173EEA9D3B80180E090E044E0D6D316
:10E7800028E00030120728F08AE393EE66E173EE8A
:10E790009BD388E297E068E6D0DEAC01009711F4E5
:10E7A00040E058E76DE0C62E62E0D62ECC0EDD1EAE
:10E7B0007E010894E11CF11C10C08A010F5F1F4FFD
:10E7C000CA0160E0A0DEF70181937F01F0E800302C
:10E7D0001F0711F400E018E7A801EC14FD0469F725
:10E7E00088E297E06CE679DE81E097E06CE640E451
:10E7F0005BDE81E097E068E686DE8823D1F78E0154
:10E800000F5F1F4F3CE0E32E37E0F32EF8014191FC
:10E810008F01C7016CE648DE0894E11CF11CF2E1AF
:10E82000EF16F7E0FF0691F78AE393EE60E073EEF0
:10E830004BD3CF80DD24DC2CCC248885C80ED11CA2
:10E84000098510E0102F00278A85080F111DEB8421
:10E85000FF24FE2CEE248C85E80EF11C8AE393EE57
:10E8600061EF72EE31D3B70180E090E044E05ED317
:10E8700083EE92EE00D3B80180E090E044E056D3FE
:10E8800081ED92EEF8D22CEF622E2FEF722E6C0CEF
:10E890007D1C4301AA24BB24C501B40144E046D336
:10E8A0000330110591F429EFE21621E0F20658F445
:10E8B0008091200290912102E816F90620F001963D
:10E8C0008E159F0510F400E010E035E0C31632E02D
:10E8D000D30608F01CC10330110509F43FC0043011
:10E8E000110540F40130110571F00230110509F0F5
:10E8F00010C10EC00430110509F4FDC0053011052A
:10E9000009F007C1FFC08AE393EE64EC72EEF7C032
:10E9100087D38AE393EE66EB72EED6D282E090E084
:10E920006FEF8ED68091280290912902C0DE8AE393
:10E9300093EE6AE972EEC8D26091280270912902C2
:10E9400080E090E044E0F2D2109221021092200286
:10E95000109223021092220202E0EBC061D38AE3FC
:10E9600093EE6BEA72EEB0D2F0922302E0922202B2
:10E97000C70101976C01EE24FF2459E0CC0CDD1C8B
:10E98000EE1CFF1C5A95D1F72FEF3FEF40E050E00F
:10E99000C222D322E422F522880F892F881F990BE7
:10E9A0009195A0E0B0E0DC0199278827C82AD92AF0
:10E9B000EA2AFB2A8C0C9D1CAE1CBF1C8AE393EE3A
:10E9C00031E0831630EF930633E0A30630E0B30660
:10E9D00028F06CE872EE78D203E0ABC061E772EE2B
:10E9E00073D2C701B60146E0A1D240E0641642E00E
:10E9F000740610F404E005C002E003C00894611C32
:10EA0000711C6620D9F78AE393EE66E572EE5CD25C
:10EA1000B30180E090E044E089D2C114D104E10464
:10EA2000F10419F4CE010D96BED1BEE0AB2EB12C8F
:10EA3000AC0EBD1E20E030E011E0212C8FEF382E0F
:10EA40008FEF482E8FEF582E2C0C3D1C4E1C5F1C58
:10EA500093E0892E45E0942E3EC0A90160E070E06D
:10EA60004C0D5D1D6E1D7F1DF501808190E0B82F5E
:10EA7000AA273197808190E0A82BB92B0D01FA01CC
:10EA800060935B0010935700E89511242E5F3F4F71
:10EA90002223E9F4C901A0E0B0E0820D931DA41D7A
:10EAA000B51DFC01A0935B0080925700E89507B666
:10EAB00000FCFDCFFC01A0935B0090925700E8950D
:10EAC00007B600FCFDCFF1E1F0935700E89542E076
:10EAD00050E0A40EB51E2615370508F4BECF04304D
:10EAE00041F58AE393EE64E472EEEED182E090E0C9
:10EAF0006EEEA6D51EC08AE393EE68E372EEE4D113
:10EB000000E017C08AE393EE62E372EEF8CF00E014
:10EB100010E08AE393EE62E272EED6D1B80180E0B3
:10EB200090E044E003D28091280290912902BFDD59
:10EB300001E0802FC45FDD4FDEBFCDBFDF91CF91FD
:10EB40001F910F91FF90EF90DF90CF90BF90AF900B
:10EB50009F908F907F906F905F904F903F902F90FD
:10EB60000895CF9385E490E0A2DD87E190E060D541
:10EB70008B3B91F489E190E05BD5C82F88E190E070
:10EB800057D52C2F30E0322F2227280F311D3093FC
:10EB900029022093280206C089E797EB9093290267
:10EBA000809328028AE393EE66EE71EE8DD18AE3BC
:10EBB00093EE6AED71EE88D160912802709129027E
:10EBC00080E090E044E0B2D1CF910895AF92BF923F
:10EBD000CF92DF92FF920F931F93CF93DF93CDB726
:10EBE000DEB7C556D040DEBFCDBF86E297E068E60F
:10EBF000A4DC009709F4C8C081E080932B020EC00A
:10EC000082E097E06CE644E04FDC8FEF97E8A3E109
:10EC100081509040A040E1F700C0000082E097E002
:10EC200068E671DC82FDECCF86E297E068E685DC81
:10EC300084DDF82E84E297E060E07FDCA12CF8E52B
:10EC4000BF2EA80EB91E92E0F91609F43EC09F151A
:10EC500020F0A1E0FA1641F41AC0B3E0FB1631F13E
:10EC6000E4E0FE1609F445C043EA51EE60E070E0CE
:10EC7000405050406D4F7F4FCE0101962AE030E06A
:10EC8000CED42AE06E010894C11CD11C42C048EBCE
:10EC900051EE60E070E0405050406D4F7F4FCE012C
:10ECA00001962CE030E0BBD42CE0ECCF4EEA51EEE4
:10ECB00060E070E0405050406D4F7F4FCE010196B4
:10ECC00029E030E0ACD429E0DDCF809122029091A0
:10ECD000230220912002309121022817390720F4C5
:10ECE00090932102809320028AE393EE69E172EE11
:10ECF00004C08AE393EE6AE072EEE6D0198284E003
:10ED00008A8380912202909123029B838C8324E04A
:10ED1000B9CF85010F5F1F4FD6014D916D01C50120
:10ED200064E7A6962FAFA697BFDBA6962FADA69752
:10ED3000B0E600301B0711F0580103C0A12CE8E534
:10ED4000BE2E215031F7A5014050584584E297E08E
:10ED50006CE6C3DB81E097E06CE640E2A5DB81E096
:10ED600097E068E6D0DB8823D1F78AE393EE6CEF77
:10ED700071EEAAD0E4E0FE1639F481E097E06CE68B
:10ED800040E192DB80E001C081E0CB59DF4FDEBF84
:10ED9000CDBFDF91CF911F910F91FF90DF90CF906A
:10EDA000BF90AF900895EF92FF920F931F93CF9370
:10EDB000DF930F92CDB7DEB77C018C010F5F1F4F41
:10EDC00020E0F70180818C30D1F081E893EE6AE693
:10EDD00073EE298379D02981622F70E080E090E082
:10EDE00044E0A4D083E693EE46D0F701608170E062
:10EDF00080E090E044E09AD082E593EE21C0F801F3
:10EE00008081843901F181E893EE6AE673EE29830B
:10EE10005BD02981622F70E06F5F7F4F882777FD7D
:10EE20008095982F44E082D083E693EE24D0F801B9
:10EE3000608170E080E090E044E078D081E493EE7F
:10EE40001AD080E010C02C5F84E090E0E80EF91E3C
:10EE50000C5F1F4F243309F0B4CF81E893EE65E7D0
:10EE600073EE32D081E00F90DF91CF911F910F911F
:10EE7000FF90EF900895CF92DF92EF92FF92CF93A1
:10EE8000DF93C0E06C01EE24FF2480E090E0A3E07B
:10EE9000B0E0C80ED91EEA1EFB1ED701C6018C0FBA
:10EEA000911DA11DB11DABBFFC01D791DD2311F058
:10EEB0008D2F71D0CF5FDD2381F7DF91CF91FF9050
:10EEC000EF90DF90CF9008950F931F93CF93DF9330
:10EED0008C01EB018BE893EECEDFC801CCDFCE01D5
:10EEE000CADFDF91CF911F910F910895CF93DF93E8
:10EEF000EC018881882311F404C04DD089918823C6
:10EF0000E1F7DF91CF9108950F931F93CF93DF9394
:10EF10008C01EB018BE893EEAEDFC801ACDFCE01D4
:10EF2000E5DFDF91CF911F910F910895CF92DF928E
:10EF3000EF92FF92CF936B017C01C42F88E893EE90
:10EF40009ADF14C08C2F90E00197880F991F880FCB
:10EF5000991FA701960104C05695479537952795A7
:10EF60008A95D2F7DA01C9011DD0C150CC2351F7DF
:10EF7000CF91FF90EF90DF90CF90089582E0809343
:10EF8000C00088E18093C10086E08093C20080E1E8
:10EF90008093C40008959091C00095FFFCCF8093AA
:10EFA000C60008958F708A3008F0895F805DF3CFC6
:10EFB0008091C00087FFFCCF8091C00084FD01C01C
:10EFC000A8958091C60008958091C00087FF05C074
:10EFD00027D081E080932A0247C081E00895809184
:10EFE00084009091850092FF04C025B1205825B976
:10EFF00001C02F9820912402309125028217930797
:10F0000050F420912602309127022F5F3F4F30931A
:10F0100027022093260290932502809324020895CC
:10F0200010928500109284001092270210922602FE
:10F03000089580E090E0DC01ABBFFC0187919691E0
:10F040002FEF8F3F920751F081E0209126023091FF
:10F0500027022530310518F480E0089580E00895F6
:10F06000EE27FF27099408952F923F924F925F92C7
:10F070006F927F928F929F92AF92BF92CF92DF92C8
:10F08000EF92FF920F931F93CF93DF93CDB7DEB72D
:10F09000C252D140DEBFCDBFCC2410E080E090E072
:10F0A0002224332421018824992454017724739441
:10F0B000C25EDE4F288239824A825B82CE51D140C5
:10F0C0002C016C2CE12E7FC2CE5DDE4F9883C252A4
:10F0D000D1406EDFCE5DDE4F9881C252D140933079
:10F0E000E1F0943028F4913069F0923078F407C060
:10F0F000953011F19530C0F0963091F52DC08B31DF
:10F1000019F785C2E826682E92E0DECF082F10E0BE
:10F11000102F0027E82693E0D7CF282F30E0022BCE
:10F12000132BE82694E0D0CF8E3009F074C2E82685
:10F130004424552495E0C8CFE1E0F0E0EC0FFD1F3A
:10F14000E40DF51D80830894411C511CE8264016EF
:10F15000510609F0B9CF61C28E1509F05CC203C037
:10F16000973009F0B1CF2981233109F405C1243149
:10F17000C0F4263009F4D3C0273048F4223069F1B6
:10F18000233009F46EC0213009F0D7C153C02131BA
:10F1900009F474C0223108F0B4C0203109F0CDC1A7
:10F1A0001CC0283109F485C0293150F4253109F4F7
:10F1B000E3C0253108F471C1263109F0BEC16DC12B
:10F1C0002A3109F469C02A3108F489C02B3109F4C5
:10F1D00058C02D3109F0B1C102C020E050C08D816E
:10F1E000803339F49F819923B1F09130B1F498E9DB
:10F1F00017C0982F907599F0803521F499E0E0E0E0
:10F20000F0E005C0883559F4E3E0F0E099E0909330
:10F210005700949105C09EE103C091E001C090E0C9
:10F220001A821B828C831D829E831F8220E007E04E
:10F2300010E088C11A8288E08B8381E48C8386E5A4
:10F240008D8382E58E8389E48F8383E5888780E5DB
:10F2500089878FE58A8782E38B8720E00BE010E0C7
:10F2600071C1EA81E059E33028F4F0E0E45EFD4F3B
:10F27000808101C080E01A828B833FC021E01A8226
:10F280005FC18D81882321F0813021F488E924C079
:10F290008EE122C081E020C01A82E1E0F0E089E046
:10F2A00080935700E491EB831C8220E004E010E09F
:10F2B00049C18B81803551F48C81883019F4E2E0AA
:10F2C000F0E006C089E0E0E0F0E003C0E3E0F0E059
:10F2D00089E08093570084911A828B83E5CF8D81DA
:10F2E000836C99E0E1E0F0E0082E90935700E895F8
:10F2F00007B600FCFDCF1A821B8220E003E010E07D
:10F3000021C180EC8A8320E002E010E0C25EDE4F83
:10F31000188219821A821B82CE51D14013C18A8071
:10F320009924AA24BB24B82CAA24992488248B814C
:10F3300090E0A0E0B0E0DC0199278827882A992A8C
:10F34000AA2ABB2A8D8190E0A0E0B0E0882A992A01
:10F35000AA2ABB2A8C8190E0A0E0B0E0BA2FA92FA6
:10F36000982F8827882A992AAA2ABB2A880C991CB0
:10F37000AA1CBB1C1A82E3C04A8150E0142F00274C
:10F380008B8190E0082B192B233109F05DC0C25E00
:10F39000DE4F88819981AA81BB81CE51D1408030D6
:10F3A000E0EC9E07E3E0AE07E0E0BE07F0F423E008
:10F3B000FC01A0935B0020935700E89507B600FC82
:10F3C000FDCFC25EDE4F88819981AA81BB81CE517B
:10F3D000D14080509F4FAF4FBF4FC25EDE4F8883FA
:10F3E0009983AA83BB83CE51D1408B85DE011D96C4
:10F3F000B501A401FD013197208130E0322F222791
:10F4000090E0282B392B0901FA0160935B00709280
:10F410005700E89511244E5F5F4F6F4F7F4F0250AA
:10F42000104019F08C911296E5CF85E0F401A0927E
:10F430005B0080935700E89507B600FCFDCF81E1A3
:10F4400080935700E89525C09801B501A401FE01FD
:10F450003B9641BDBB27A72F962F852F82BD4F5FBF
:10F460005F4F6F4F7F4F819180BDFA9AF99AF9995A
:10F47000FECF2150304069F701501040A80160E0F4
:10F4800070E04F5F5F4F6F4F7F4F480D591D6A1DF2
:10F490007B1D1A824A015B0152C08A8190E0F82EDE
:10F4A000EE248B8190E0E82AF92A87010D5F1F4F37
:10F4B0001A822431C9F4DE011396A7019D01D501FA
:10F4C000C401ABBFFC0167917691F9016083718340
:10F4D0002E5F3F4F0296A11DB11D4250504089F74B
:10F4E0004C015D01D90126C09701B501A401FE01BF
:10F4F000339641BDBB27A72F962F852F82BD4F5F27
:10F500005F4F6F4F7F4FF89A80B581932150304005
:10F5100081F7C7010197A0E0B0E00196A11DB11DE0
:10F52000880E991EAA1EBB1EA3E0B0E0AC0FBD1F43
:10F53000AE0DBF1D1C9220E005C080EC8A8320E048
:10F5400002E010E08BE1CE5DDE4F2883C252D14055
:10F5500022DD862D20DD812F9927D82E1CDD802FDE
:10F560001ADD8EE018DD25E1E22EE624E026ED240A
:10F570006E010894C11CD11C12010DC0D6014D9022
:10F580006D01842DCE5DDE4F2883C252D14003DD54
:10F59000E42401501040CE5DDE4F2881C252D1409C
:10F5A0000115110559F721018E2DCE5DDE4F2883FF
:10F5B000C252D140F0DC6394CE5DDE4F2881C2524E
:10F5C000D140222319F400E010E025C0000081E1C1
:10F5D00080935700E89582E090E06EEE31D080E0B5
:10F5E000CE5DDE4FDEBFCDBFDF91CF911F910F917A
:10F5F000FF90EF90DF90CF90BF90AF909F908F9053
:10F600007F906F905F904F903F902F9008958BE187
:10F61000E82E91E059CD90E057CD96E055CDFA0116
:10F62000DC0102C005900D9221503040D8F70895BA
:10F63000F999FECF92BD81BDF89A992780B50895BA
:10F64000262FF999FECF1FBA92BD81BD20BD0FB6FE
:10F65000F894FA9AF99A0FBE01960895F894FFCF9C
:10F6600080C0A85401FFFFFF00DEADBEEFFEEDC07D
:10F67000A854800000000007D08055550F020A00F2
:040000033000E000E9
:00000001FF
