:1070000050C0000008C1000006C1000004C100001B
:1070100002C1000000C10000FEC00000FCC0000072
:10702000FAC00000F8C00000F6C00000F4C0000084
:10703000F2C00000F0C00000EEC00000ECC0000094
:10704000EAC00000E8C00000E6C00000E4C00000A4
:10705000E2C00000E0C00000DEC00000DCC00000B4
:10706000DAC00000D8C000001300050000496E76A9
:10707000616C696420696D6167652066696C650093
:1070800008000500004572726F72000900050003D8
:1070900046756C6C000A000500004F70636F6465F4
:1070A0003F0011241FBECFEFD8E0DEBFCDBF11E0FF
:1070B000A0E0B1E0ECE6F9E702C005900D92A03245
:1070C000B107D9F711E0A0E2B1E001C01D92AC32E6
:1070D000B107E1F701D048C484B714BE98E10FB6F8
:1070E000F89490936000109260000FBE2FEF35EA85
:1070F0004EE0215030404040E1F700C00000259AAA
:10710000249A83FD2BC085B120E2822785B988E0CF
:1071100087B988B92FEF31EE44E02150304040402C
:10712000E1F700C0000018B82FEF39E648E1215020
:1071300030404040E1F700C0000088B92FEF31EE49
:1071400044E0215030404040E1F700C000009093FF
:1071500060008CE0809360002D98FFCF112485E0C3
:107160008093810080E090E0E9D3882321F080E0E3
:1071700090E060E0EBD381E090E0E0D3843021F058
:1071800081E090E064E0E2D34D9B13C08EE390E099
:10719000D5D3813029F082E090E0D0D38E3E31F01B
:1071A0008EE390E060E0D2D311E004C0BAD310E0E7
:1071B00001C011E045D38FD097D04ED210922A0152
:1071C00010922B0103E0C0E0D0E080912A018823D7
:1071D00019F465D28823C1F090D3882399F0113037
:1071E00089F082E090E0AAD38E3E71F080912B016D
:1071F000813041F4FE0100935700E8952DD274D3FD
:1072000010922B014DD3E1CF88E1809360008CE098
:1072100080936000FFCFF4CE20E52CBD2A98292F63
:1072200033272EBD0DB407FEFDCF8EBD0DB407FE76
:10723000FDCF6EBD0DB407FEFDCF4EBD0DB407FEF4
:10724000FDCF2A9A1CBC0895EF92FF921F93CF9313
:10725000DF93EC01162F7A01452F5527DDDFCE0194
:107260000196612F4E2DD8DFDF91CF911F91FF90B6
:10727000EF90089520E52CBD2A98292F33272EBDA5
:107280000DB407FEFDCF8EBD0DB407FEFDCF6EBD64
:107290000DB407FEFDCF1EBC0DB407FEFDCF2A9A2C
:1072A0008EB51CBC08950F931F93CF93DF93EC0111
:1072B000162FE0DF082FCE010196612FDBDF202F94
:1072C00030E0322F222790E0822B932BDF91CF9159
:1072D0001F910F9108958CE385B98CE284B95C9A73
:1072E000549A81E08DBD08950F931F93CF93DF9340
:1072F00083E090E023D3853591F484E090E01ED3C1
:107300008A3A69F401E011E0C5E0D0E0CE0116D37D
:10731000F80181938F012196C731D105B9F700E0BB
:1073200011E0C0E0D0E0F80141918F01CE0164E0AE
:1073300073DF2196CC31D105B1F7C0E00C2F029557
:10734000000F007E045F8EE190E0602F42E064DF7A
:107350008FE190E0602F42E05FDFCF5FC83071F7D0
:10736000DF91CF911F910F910895CF93DF93EC019F
:1073700081E090E06CE640E14FDF81E090E068E67C
:1073800079DF8823D1F782E090E06CE64FEF44DFAD
:1073900080E090E06CE642E03FDF84E090E06CE665
:1073A000AE0152DF81E090E06CE641E035DF81E044
:1073B00090E068E65FDF8823D1F783E090E068E63D
:1073C00059DF823229F081E090E06CE640E124DF71
:1073D00083E090E068E64EDF8232A9F6DF91CF913C
:1073E0000895BF92CF92DF92EF92FF920F931F9377
:1073F000CF93DF93CDB7DEB7CC50D240DEBFCDBF49
:1074000088E290E068E64FDFAC01ADE0CA2EA2E072
:10741000DA2ECC0EDD1E7E010894E11CF11C10C09A
:107420008A010F5F1F4FCA0168E724DFF7018193CC
:107430007F01FFEF0F3F1F0711F400E010E0A801EC
:10744000EC14FD0469F788E290E06CE6FDDE81E073
:1074500090E06CE640E4E0DE81E090E068E60ADF80
:107460008823D1F78E010F5F1F4FFCE0EF2EF12C28
:10747000F80141918F01C7016CE6CEDE0894E11C52
:10748000F11CF2E1EF16F10499F7EF80FF24FE2CD6
:10749000EE248885E80EF11C898590E0982F8827D6
:1074A0002A85820F911D0B8510E0102F00272C8557
:1074B000020F111D8330910589F40933110560F421
:1074C00020912001309121010217130728F02F5F2E
:1074D0003F4F2017310710F480E090E025E0E216DE
:1074E00022E0F20608F09DC08330910529F1843036
:1074F000910548F48130910509F49AC082309105D4
:1075000009F08FC005C08630910508F08AC090C090
:10751000EBD182E090E06FEF19D280912801909139
:10752000290123DF109221011092200110922301E2
:107530001092220102E081C0D7D14CEFC42E4FEF50
:10754000D42ECE0CDF1C109323010093220178016E
:107550000894E108F108FE2CEE24FF0CC7018C0D05
:107560009D1DE0E781309E0708F064C0F0E0CF1673
:10757000F2E0DF0610F404E005C002E003C0089466
:10758000C11CD11CC6018F7790700097C1F7E11420
:10759000F10431F4CE010D9641D1882309F44CC099
:1075A000DE011E9640E050E061E073E015E031E15D
:1075B000B32E2DC08C9190E0382F2227FD013197FA
:1075C000808190E0282B392BF70109016093570047
:1075D000E89511244E5F5F4FCA018F779070009736
:1075E00089F4EE57F04070935700E89507B600FC19
:1075F000FDCF10935700E89507B600FCFDCFB09281
:107600005700E895129682E090E0E80EF91E4C15BE
:107610005D0580F2043089F482E090E06EEE96D150
:107620000CC080912801909129019FDE01E005C0E6
:1076300000E003C003E001C005E0802FC45FDD4F20
:10764000DEBFCDBFDF91CF911F910F91FF90EF90E3
:10765000DF90CF90BF900895CF9385E490E085DED2
:1076600087E190E06BD18B3B91F489E190E066D1AA
:10767000C82F88E190E062D12C2F30E0322F2227F2
:10768000280F311D309329012093280106C089E776
:1076900097EB9093290180932801CF910895AF92A1
:1076A000BF92CF92DF92FF920F931F93CF93DF93FE
:1076B000CDB7DEB7C556D040DEBFCDBF86E290E085
:1076C00068E6F1DD009709F49AC081E080932B0110
:1076D0000EC082E090E06CE644E09EDD8FEF97E81C
:1076E000A3E181509040A040E1F700C0000082E09B
:1076F00090E068E6BFDD82FDECCF73DEF82E84E219
:1077000090E068E6D0DD6C0192E0F91659F19F1522
:1077100020F0A1E0FA1639F413C0B3E0FB16C9F06B
:10772000E4E0FE1671F1CE01019660E870E74AE0F0
:1077300050E0FBD02AE05E010894A11CB11C2CC0D3
:10774000CE01019665E970E74CE050E0EED02CE008
:10775000F2CFCE0101966BE870E749E050E0E5D04A
:1077600029E0E9CF8091220190912301209120010D
:10777000309121012817390720F49093210180933B
:107780002001198284E08A83809122019091230153
:107790009B838C8324E0CFCF86010F5F1F4FD501E1
:1077A0004D915D01C60164E7A6962FAFA69734DD23
:1077B000A6962FADA697BFEF0F3F1B0711F06801EC
:1077C00002C0CC24DD24215039F784E290E06CE63D
:1077D000A6013ADD81E090E06CE640E21DDD81E04B
:1077E00090E068E647DD8823D1F7E4E0FE1639F43F
:1077F00081E090E06CE640E10FDD80E001C081E0D7
:10780000CB59DF4FDEBFCDBFDF91CF911F910F91DD
:10781000FF90DF90CF90BF90AF900895FC0180E083
:1078200090819C3049F49181943941F48C5F349675
:107830008433B1F781E0089580E0089580E00895F1
:1078400082E08093C00088E18093C10086E080934D
:10785000C20080E18093C40008959091C00095FF1C
:10786000FCCF8093C60008958F708A3008F0895F3E
:10787000805DF3CF8091C00087FFFCCF8091C00076
:1078800084FD01C0A8958091C60008958091C00034
:1078900087FF04C029D081E080932A0181E0089508
:1078A000809184009091850092FF08C04D9B02C09A
:1078B0002D9804C025B130E2232725B92091240159
:1078C000309125018217930750F4209126013091C1
:1078D00027012F5F3F4F309327012093260190937C
:1078E0002501809324010895109285001092840050
:1078F00010922701109226010895E0E0F0E08591B2
:1079000094912FEF8F3F920751F081E02091260153
:10791000309127012530310518F480E0089580E08A
:107920000895EE27FF2709940895FB01DC0102C0AA
:1079300005900D9241505040D8F70895F999FECF27
:1079400092BD81BDF89A992780B50895262FF9999F
:10795000FECF1FBA92BD81BD20BD0FB6F894FA9A32
:0C796000F99A0FBE01960895F894FFCF2D
:10796C0080C0A85401FFFFFF00DEADBEEFFEEDC0EE
:10797C00A8548000000000000007D0080F020A0085
:040000030000700089
:00000001FF
