:020000023000CC
:10E000008EC000000DC100000BC1000009C100005E
:10E0100007C1000005C1000003C1000001C10000EC
:10E02000FFC00000FDC00000FBC00000F9C0000000
:10E03000F7C00000F5C00000F3C00000F1C0000010
:10E04000EFC00000EDC00000EBC00000E9C0000020
:10E05000E7C00000E5C00000E3C00000E1C0000030
:10E06000DFC00000DDC00000DBC00000D9C0000040
:10E07000D7C00000D5C00000D3C00000D1C0000050
:10E08000CFC00000CDC00000CBC00000C9C0000060
:10E09000C7C00000C5C00000C3C00000C1C0000070
:10E0A000BFC00000BDC00000BBC00000B9C0000080
:10E0B000B7C00000B5C00000B3C00000B1C0000090
:10E0C000AFC00000ADC00000ABC00000A9C00000A0
:10E0D000A7C00000A5C00000A3C00000A1C00000B0
:10E0E0009FC000001300050000496E76616C6964F2
:10E0F00020696D6167652066696C65000800050030
:10E10000004572726F7200090005000346756C6C61
:10E11000000A000500004F70636F64653F00112422
:10E120001FBECFEFD1E2DEBFCDBF01E00CBF12E0DA
:10E13000A0E0B2E0E4E0F0EF03E00BBF02C0079024
:10E140000D92A032B107D9F71BBE12E0A0E2B2E0F7
:10E1500001C01D92AC32B107E1F701D051C784B7BD
:10E1600014BE98E10FB6F89490936000109260008E
:10E170000FBE81FD01C046D48FEF95EAAEE081501D
:10E180009040A040E1F700C00000112485E080939A
:10E19000810080E090E01ED7882321F080E090E0AD
:10E1A00060E020D781E090E015D7843021F081E055
:10E1B00090E064E017D7B4D393D0A1D0A9D2109245
:10E1C0002A0210922B02C3E0CC24DD247601809138
:10E1D0002A02882319F4BFD28823F9F080912B02F8
:10E1E000882319F4C3D38823C1F0F5D3882399F089
:10E1F00082E090E0EFD68E3E81F080912B0281305C
:10E2000051F4F601E0925B00C0935700E89580D28C
:10E21000D9D310922B02B5D3DACFF4D380E090E0BB
:10E22000EFCE20E52CBD2C98292F33272EBD0DB421
:10E2300007FEFDCF8EBD0DB407FEFDCF6EBD0DB444
:10E2400007FEFDCF4EBD0DB407FEFDCF2C9A1CBCC2
:10E250000895EF92FF921F93CF93DF93EC01162F57
:10E260007A01452F5527DDDFCE010196612F4E2D16
:10E27000D8DFDF91CF911F91FF90EF90089520E5B7
:10E280002CBD2C98292F33272EBD0DB407FEFDCFB2
:10E290008EBD0DB407FEFDCF6EBD0DB407FEFDCFE4
:10E2A0001EBC0DB407FEFDCF2C9A8EB51CBC089584
:10E2B0000F931F93CF93DF93EC01162FE0DF082F0E
:10E2C000CE010196612FDBDF202F30E0322F222795
:10E2D00090E0822B932BDF91CF911F910F910895A6
:10E2E00087E085B984B923982C9A249AA59A9D9A97
:10E2F0002F9A279A81E58CBD81E08DBD08950F93FB
:10E300001F93CF93DF9383E090E064D6853591F43B
:10E3100084E090E05FD68A3A69F401E012E0C5E05B
:10E32000D0E0CE0157D6F80181938F012196C731F5
:10E33000D105B9F700E012E0C0E0D0E0F80141916A
:10E340008F01CE0164E06DDF2196CC31D105B1F7AC
:10E35000C0E00C2F0295000F007E045F8EE190E07C
:10E36000602F42E05EDF8FE190E0602F42E059DFF6
:10E37000CF5FC83071F7DF91CF911F910F91089552
:10E38000CF93DF93EC0181E090E06CE640E149DF60
:10E3900081E090E068E673DF8823D1F782E090E0C7
:10E3A0006CE64FEF3EDF80E090E06CE642E039DF64
:10E3B00084E090E06CE6AE014CDF81E090E06CE63A
:10E3C00041E02FDF81E090E068E659DF8823D1F754
:10E3D00083E090E068E653DF823229F081E090E04C
:10E3E0006CE640E11EDF83E090E068E648DF8232C1
:10E3F000A9F6DF91CF9108952F923F924F925F92AD
:10E400006F927F928F929F92AF92BF92CF92DF9244
:10E41000EF92FF920F931F93CF93DF93CDB7DEB7A9
:10E42000CC50D240DEBFCDBF88E290E068E640DF4E
:10E43000AC01FDE0CF2EF2E0DF2ECC0EDD1E7E0122
:10E440000894E11CF11C10C08A010F5F1F4FCA0124
:10E4500068E715DFD7018D937D01BFEF0F3F1B07E5
:10E4600011F400E010E0A801EC14FD0469F788E263
:10E4700090E06CE6EEDE81E090E06CE640E4D1DE18
:10E4800081E090E068E6FBDE8823D1F78E010F5F24
:10E490001F4FECE0EE2EF12CF80141918F01C701E6
:10E4A0006CE6BFDE0894E11CF11CF2E1EF16F1040A
:10E4B00099F7EF80FF24FE2CEE248885E80EF11CEE
:10E4C000898590E0982F88272A85820F911D0B85DA
:10E4D00010E0102F00272C85020F111D83309105AD
:10E4E00091F421E0093F120760F42091200230915D
:10E4F00021020217130728F02F5F3F4F2017310723
:10E5000010F480E090E0A5E0EA16A2E0FA0608F038
:10E51000DDC08330910529F18430910548F48130C4
:10E52000910509F4DAC08230910509F0CFC005C029
:10E530008630910508F0CAC0D0C044D282E090E095
:10E540006FEF50D5809128029091290219DF109227
:10E55000210210922002109223021092220202E065
:10E56000BFC030D29CEF892E9FEF992E8E0C9F1C3E
:10E570001093230200932202015010406801EE2400
:10E58000FF2429E0CC0CDD1CEE1CFF1C2A95D1F7E2
:10E590008FEF9FEFA0E0B0E0C822D922EA22FB2251
:10E5A000000F012F001F110B119520E030E09801A2
:10E5B00011270027C02AD12AE22AF32AC401A0E0A9
:10E5C000B0E08C0D9D1DAE1DBF1D8130E0EF9E079C
:10E5D000E3E0AE07E0E0BE0708F081C0F0E08F1690
:10E5E000F2E09F0610F404E005C002E003C00894C6
:10E5F000811C911C8820D9F7C114D104E104F104D5
:10E6000019F4CE010D967AD1FEE0AF2EB12CAC0EEE
:10E61000BD1E20E030E011E0412CAFEF5A2EAFEFED
:10E620006A2EAFEF7A2E4C0C5D1C6E1C7F1CB3E083
:10E630003B2E85E0282E3FC0A90160E070E04C0D24
:10E640005D1D6E1D7F1DD5018C9190E0B82FAA270E
:10E65000F5013197808190E0A82BB92B0D01FA01CB
:10E6600060935B0010935700E89511242E5F3F4F95
:10E670002223E9F4C901A0E0B0E0840D951DA61D98
:10E68000B71DFC01A0935B0030925700E89507B6D8
:10E6900000FCFDCFFC01A0935B0020925700E895A1
:10E6A00007B600FCFDCFB1E1B0935700E895E2E07A
:10E6B000F0E0AE0EBF1E2815390508F4BDCF0430BA
:10E6C00079F482E090E06EEE8DD40AC08091280249
:10E6D0009091290255DE01E003C000E001C003E093
:10E6E000802FC45FDD4FDEBFCDBFDF91CF911F9183
:10E6F0000F91FF90EF90DF90CF90BF90AF909F90E1
:10E700008F907F906F905F904F903F902F900895E3
:10E71000CF9385E490E034DE87E190E05BD48B3BDF
:10E7200091F489E190E056D4C82F88E190E052D46A
:10E730002C2F30E0322F2227280F311D3093290251
:10E740002093280206C089E797EB909329028093D3
:10E750002802CF910895AF92BF92CF92DF92FF929D
:10E760000F931F93CF93DF93CDB7DEB7C556D0403D
:10E77000DEBFCDBF86E290E068E69ADD009709F43F
:10E78000AEC081E080932B020EC082E090E06CE688
:10E7900044E047DD8FEF97E8A3E181509040A0402F
:10E7A000E1F700C0000082E090E068E668DD82FDED
:10E7B000ECCF22DEF82E84E290E068E679DD5C01A1
:10E7C00092E0F91609F43EC09F1520F0A1E0FA1678
:10E7D00041F41AC0B3E0FB1631F1E4E0FE1609F48F
:10E7E00040C04CEF50EE60E070E0405050406D4F44
:10E7F0007F4FCE0101962AE030E0E3D32AE06E019C
:10E800000894C11CD11C38C041E151EE60E070E0B9
:10E81000405050406D4F7F4FCE0101962CE030E0CC
:10E82000D0D32CE0ECCF47E051EE60E070E04050F8
:10E8300050406D4F7F4FCE01019629E030E0C1D3AB
:10E8400029E0DDCF809122029091230220912002C5
:10E85000309121022817390720F4909321028093E8
:10E860002002198284E08A838091220290912302FF
:10E870009B838C8324E0C3CF85010F5F1F4FD6019C
:10E880004D916D01C50164E7A6962FAFA697C9DC2F
:10E89000A6962FADA697BFEF0F3F1B0711F05801AB
:10E8A00002C0AA24BB24215039F784E290E06CE630
:10E8B000A501CFDC81E090E06CE640E2B2DC81E0D3
:10E8C00090E068E6DCDC8823D1F7E4E0FE1639F45A
:10E8D00081E090E06CE640E1A4DC80E001C081E0F2
:10E8E000CB59DF4FDEBFCDBFDF91CF911F910F918D
:10E8F000FF90DF90CF90BF90AF900895FC0180E033
:10E9000090819C3049F49181943941F48C5F349624
:10E910008433B1F781E0089580E0089580E00895A0
:10E9200082E08093C00088E18093C10086E08093FC
:10E93000C20080E18093C40008959091C00095FFCB
:10E94000FCCF8093C60008958F708A3008F0895FED
:10E95000805DF3CF8091C00087FFFCCF8091C00025
:10E9600084FD01C0A8958091C60008958091C000E3
:10E9700087FF05C027D081E080932A0247C081E04D
:10E980000895809184009091850092FF04C025B184
:10E99000205825B901C02F982091240230912502DA
:10E9A0008217930750F420912602309127022F5F9F
:10E9B0003F4F3093270220932602909325028093A5
:10E9C000240208951092850010928400109227026C
:10E9D00010922602089580E090E0DC01ABBFFC01BC
:10E9E000879196912FEF8F3F920751F081E0209110
:10E9F0002602309127022530310518F480E0089571
:10EA000080E00895EE27FF27099408952F923F9202
:10EA10004F925F926F927F928F929F92AF92BF922E
:10EA2000CF92DF92EF92FF920F931F93CF93DF93DA
:10EA3000CDB7DEB7C252D140DEBFCDBFCC2410E08F
:10EA400080E090E022243324210188249924540179
:10EA500077247394C25EDE4F288239824A825B82B9
:10EA6000CE51D1402C016C2CE12E7FC2CE5DDE4F09
:10EA70009883C252D1406EDFCE5DDE4F9881C25284
:10EA8000D1409330E1F0943028F4913069F0923025
:10EA900078F407C0953011F19530C0F0963091F5BB
:10EAA0002DC08B3119F785C2E826682E92E0DECFA3
:10EAB000082F10E0102F0027E82693E0D7CF282F4B
:10EAC00030E0022B132BE82694E0D0CF8E3009F0F3
:10EAD00074C2E8264424552495E0C8CFE1E0F0E074
:10EAE000EC0FFD1FE40DF51D80830894411C511CA3
:10EAF000E8264016510609F0B9CF61C28E1509F01B
:10EB00005CC203C0973009F0B1CF2981233109F4E9
:10EB100005C12431C0F4263009F4D3C0273048F4AD
:10EB2000223069F1233009F46EC0213009F0D7C1D9
:10EB300053C0213109F474C0223108F0B4C020312F
:10EB400009F0CDC11CC0283109F485C0293150F429
:10EB5000253109F4E3C0253108F471C1263109F0EB
:10EB6000BEC16DC12A3109F469C02A3108F489C0D7
:10EB70002B3109F458C02D3109F0B1C102C020E099
:10EB800050C08D81803339F49F819923B1F0913049
:10EB9000B1F498E917C0982F907599F0803521F459
:10EBA00099E0E0E0F0E005C0883559F4E3E0F0E0FA
:10EBB00099E090935700949105C09EE103C091E0C5
:10EBC00001C090E01A821B828C831D829E831F826B
:10EBD00020E007E010E088C11A8288E08B8381E49E
:10EBE0008C8386E58D8382E58E8389E48F8383E53C
:10EBF000888780E589878FE58A8782E38B8720E095
:10EC00000BE010E071C1EA81E059E33028F4F0E054
:10EC1000E45EFD4F808101C080E01A828B833FC09B
:10EC200021E01A825FC18D81882321F0813021F497
:10EC300088E924C08EE122C081E020C01A82E1E090
:10EC4000F0E089E080935700E491EB831C8220E0A0
:10EC500004E010E049C18B81803551F48C8188300B
:10EC600019F4E2E0F0E006C089E0E0E0F0E003C083
:10EC7000E3E0F0E089E08093570084911A828B836F
:10EC8000E5CF8D81836C99E0E1E0F0E0082E909370
:10EC90005700E89507B600FCFDCF1A821B8220E0E2
:10ECA00003E010E021C180EC8A8320E002E010E064
:10ECB000C25EDE4F188219821A821B82CE51D14069
:10ECC00013C18A809924AA24BB24B82CAA2499248D
:10ECD00088248B8190E0A0E0B0E0DC0199278827B0
:10ECE000882A992AAA2ABB2A8D8190E0A0E0B0E068
:10ECF000882A992AAA2ABB2A8C8190E0A0E0B0E059
:10ED0000BA2FA92F982F8827882A992AAA2ABB2A9E
:10ED1000880C991CAA1CBB1C1A82E3C04A8150E0D3
:10ED2000142F00278B8190E0082B192B233109F039
:10ED30005DC0C25EDE4F88819981AA81BB81CE51C0
:10ED4000D1408030E0EC9E07E3E0AE07E0E0BE0794
:10ED5000F0F423E0FC01A0935B0020935700E895BA
:10ED600007B600FCFDCFC25EDE4F88819981AA8183
:10ED7000BB81CE51D14080509F4FAF4FBF4FC25E3D
:10ED8000DE4F88839983AA83BB83CE51D1408B8584
:10ED9000DE011D96B501A401FD013197208130E00F
:10EDA000322F222790E0282B392B0901FA0160939A
:10EDB0005B0070925700E89511244E5F5F4F6F4FD4
:10EDC0007F4F0250104019F08C911296E5CF85E0EC
:10EDD000F401A0925B0080935700E89507B600FC11
:10EDE000FDCF81E180935700E89525C09801B501DA
:10EDF000A401FE013B9641BDBB27A72F962F852F6F
:10EE000082BD4F5F5F4F6F4F7F4F819180BDFA9AF8
:10EE1000F99AF999FECF2150304069F7015010401E
:10EE2000A80160E070E04F5F5F4F6F4F7F4F480D6C
:10EE3000591D6A1D7B1D1A824A015B0152C08A81DD
:10EE400090E0F82EEE248B8190E0E82AF92A8701E1
:10EE50000D5F1F4F1A822431C9F4DE011396A701FA
:10EE60009D01D501C401ABBFFC0167917691F90109
:10EE7000608371832E5F3F4F0296A11DB11D4250EA
:10EE8000504089F74C015D01D90126C09701B501B9
:10EE9000A401FE01339641BDBB27A72F962F852FD6
:10EEA00082BD4F5F5F4F6F4F7F4FF89A80B5819360
:10EEB0002150304081F7C7010197A0E0B0E00196F2
:10EEC000A11DB11D880E991EAA1EBB1EA3E0B0E0B5
:10EED000AC0FBD1FAE0DBF1D1C9220E005C080EC25
:10EEE0008A8320E002E010E08BE1CE5DDE4F2883D4
:10EEF000C252D14022DD862D20DD812F9927D82EC8
:10EF00001CDD802F1ADD8EE018DD25E1E22EE624DF
:10EF1000E026ED246E010894C11CD11C12010DC025
:10EF2000D6014D906D01842DCE5DDE4F2883C252F7
:10EF3000D14003DDE42401501040CE5DDE4F288136
:10EF4000C252D1400115110559F721018E2DCE5D18
:10EF5000DE4F2883C252D140F0DC6394CE5DDE4F99
:10EF60002881C252D140222319F400E010E025C0CC
:10EF7000000081E180935700E89582E090E06EEE1A
:10EF800031D080E0CE5DDE4FDEBFCDBFDF91CF91CF
:10EF90001F910F91FF90EF90DF90CF90BF90AF90B7
:10EFA0009F908F907F906F905F904F903F902F90A9
:10EFB00008958BE1E82E91E059CD90E057CD96E091
:10EFC00055CDFA01DC0102C005900D922150304070
:10EFD000D8F70895F999FECF92BD81BDF89A992787
:10EFE00080B50895262FF999FECF1FBA92BD81BD35
:10EFF00020BD0FB6F894FA9AF99A0FBE01960895BB
:04F00000F894FFCFB2
:10F0040080C0A85401FFFFFF00DEADBEEFFEEDC0DF
:10F01400A8548000000000000007D0080F020A0076
:040000033000E000E9
:00000001FF
