:1070000050C00000D6C00000D4C00000D2C00000B4
:10701000D0C00000CEC00000CCC00000CAC000003C
:10702000C8C00000C6C00000C4C00000C2C000004C
:10703000C0C00000BEC00000BCC00000BAC000005C
:10704000B8C00000B6C00000B4C00000B2C000006C
:10705000B0C00000AEC00000ACC00000AAC000007C
:10706000A8C00000A6C000001300050000496E760D
:10707000616C696420696D6167652066696C650093
:1070800008000500004572726F72000900050003D8
:1070900046756C6C000A000500004F70636F6465F4
:1070A0003F0011241FBECFEFD8E0DEBFCDBF11E0FF
:1070B000A0E0B1E0E8E0F9E702C005900D92A0324F
:1070C000B107D9F711E0A0E2B1E001C01D92AC32E6
:1070D000B107E1F701D016C4C4B714BE88E10FB6FA
:1070E000F89480936000109260000FBE8FEF95EAD5
:1070F000AEE081509040A040E1F700C000001124B4
:1071000085E08093810080E090E0E6D3882321F041
:1071100080E090E060E0E8D381E090E0DDD384306F
:1071200021F081E090E064E0DFD38EE390E0D4D3FF
:10713000813031F48EE390E060E0D6D311E008C0F6
:10714000823011F0C1FD03C0BAD310E001C010E0DD
:1071500047D38FD099D050D210922A0110922B0190
:1071600003E0C0E0D0E080912A01882319F467D2BF
:107170008823C1F090D3882399F0113089F082E000
:1071800090E0AAD38E3E71F080912B01813041F4C2
:10719000FE0100935700E8952FD274D310922B0173
:1071A0004FD3E1CF88E1809360008CE08093600052
:1071B000FFCF26CF20E52CBD2A98292F33272EBDBF
:1071C0000DB407FEFDCF8EBD0DB407FEFDCF6EBD25
:1071D0000DB407FEFDCF4EBD0DB407FEFDCF2A9ABC
:1071E0001CBC0895EF92FF921F93CF93DF93EC01A5
:1071F000162F7A01452F5527DDDFCE010196612F2D
:107200004E2DD8DFDF91CF911F91FF90EF90089521
:1072100020E52CBD2A98292F33272EBD0DB407FE5B
:10722000FDCF8EBD0DB407FEFDCF6EBD0DB407FEC4
:10723000FDCF1EBC0DB407FEFDCF2A9A8EB51CBC37
:1072400008950F931F93CF93DF93EC01162FE0DF88
:10725000082FCE010196612FDBDF202F30E0322F87
:10726000222790E0822B932BDF91CF911F910F91DA
:1072700008958CE285B984B924985C9A549A81E582
:107280008CBD81E08DBD08950F931F93CF93DF9345
:1072900083E090E021D3853591F484E090E01CD325
:1072A0008A3A69F401E011E0C5E0D0E0CE0114D3E0
:1072B000F80181938F012196C731D105B9F700E01C
:1072C00011E0C0E0D0E0F80141918F01CE0164E00F
:1072D00071DF2196CC31D105B1F7C0E00C2F0295BA
:1072E000000F007E045F8EE190E0602F42E062DFDD
:1072F0008FE190E0602F42E05DDFCF5FC83071F733
:10730000DF91CF911F910F910895CF93DF93EC01FF
:1073100081E090E06CE640E14DDF81E090E068E6DE
:1073200077DF8823D1F782E090E06CE64FEF42DF11
:1073300080E090E06CE642E03DDF84E090E06CE6C7
:10734000AE0150DF81E090E06CE641E033DF81E0A8
:1073500090E068E65DDF8823D1F783E090E068E69F
:1073600057DF823229F081E090E06CE640E122DFD5
:1073700083E090E068E64CDF8232A9F6DF91CF919E
:107380000895BF92CF92DF92EF92FF920F931F93D7
:10739000CF93DF93CDB7DEB7CC50D240DEBFCDBFA9
:1073A00088E290E068E64DDFAC01ADE0CA2EA2E0D5
:1073B000DA2ECC0EDD1E7E010894E11CF11C10C0FB
:1073C0008A010F5F1F4FCA0168E722DFF70181932F
:1073D0007F01FFEF0F3F1F0711F400E010E0A8014D
:1073E000EC14FD0469F788E290E06CE6FBDE81E0D6
:1073F00090E06CE640E4DEDE81E090E068E608DFE5
:107400008823D1F78E010F5F1F4FFCE0EF2EF12C88
:10741000F80141918F01C7016CE6CCDE0894E11CB4
:10742000F11CF2E1EF16F10499F7EF80FF24FE2C36
:10743000EE248885E80EF11C898590E0982F882736
:107440002A85820F911D0B8510E0102F00272C85B7
:10745000020F111D8330910589F40933110560F481
:1074600020912001309121010217130728F02F5F8E
:107470003F4F2017310710F480E090E025E0E2163E
:1074800022E0F20608F09DC08330910529F1843096
:10749000910548F48130910509F49AC08230910534
:1074A00009F08FC005C08630910508F08AC090C0F1
:1074B000E9D182E090E06FEF17D28091280190919E
:1074C000290123DF10922101109220011092230143
:1074D0001092220102E081C0D5D14CEFC42E4FEFB3
:1074E000D42ECE0CDF1C10932301009322017801CF
:1074F0000894E108F108FE2CEE24FF0CC7018C0D66
:107500009D1DE0E781309E0708F064C0F0E0CF16D3
:10751000F2E0DF0610F404E005C002E003C00894C6
:10752000C11CD11CC6018F7790700097C1F7E11480
:10753000F10431F4CE010D9641D1882309F44CC0F9
:10754000DE011E9640E050E061E073E015E031E1BD
:10755000B32E2DC08C9190E0382F2227FD0131975A
:10756000808190E0282B392BF701090160935700A7
:10757000E89511244E5F5F4FCA018F779070009796
:1075800089F4EE57F04070935700E89507B600FC79
:10759000FDCF10935700E89507B600FCFDCFB092E1
:1075A0005700E895129682E090E0E80EF91E4C151F
:1075B0005D0580F2043089F482E090E06EEE94D1B3
:1075C0000CC080912801909129019FDE01E005C047
:1075D00000E003C003E001C005E0802FC45FDD4F81
:1075E000DEBFCDBFDF91CF911F910F91FF90EF9044
:1075F000DF90CF90BF900895CF9385E490E085DE33
:1076000087E190E069D18B3B91F489E190E064D10E
:10761000C82F88E190E060D12C2F30E0322F222754
:10762000280F311D309329012093280106C089E7D6
:1076300097EB9093290180932801CF910895AF9201
:10764000BF92CF92DF92FF920F931F93CF93DF935E
:10765000CDB7DEB7C556D040DEBFCDBF86E290E0E5
:1076600068E6EFDD009709F49AC081E080932B0172
:107670000EC082E090E06CE644E09CDD8FEF97E87E
:10768000A3E181509040A040E1F700C0000082E0FB
:1076900090E068E6BDDD82FDECCF73DEF82E84E27B
:1076A00090E068E6CEDD6C0192E0F91659F19F1585
:1076B00020F0A1E0FA1639F413C0B3E0FB16C9F0CC
:1076C000E4E0FE1671F1CE01019660E870E74AE051
:1076D00050E0F9D02AE05E010894A11CB11C2CC036
:1076E000CE01019665E970E74CE050E0ECD02CE06B
:1076F000F2CFCE0101966BE870E749E050E0E3D0AD
:1077000029E0E9CF8091220190912301209120016D
:10771000309121012817390720F49093210180939B
:107720002001198284E08A838091220190912301B3
:107730009B838C8324E0CFCF86010F5F1F4FD50141
:107740004D915D01C60164E7A6962FAFA69732DD85
:10775000A6962FADA697BFEF0F3F1B0711F068014C
:1077600002C0CC24DD24215039F784E290E06CE69D
:10777000A60138DD81E090E06CE640E21BDD81E0AF
:1077800090E068E645DD8823D1F7E4E0FE1639F4A1
:1077900081E090E06CE640E10DDD80E001C081E039
:1077A000CB59DF4FDEBFCDBFDF91CF911F910F913E
:1077B000FF90DF90CF90BF90AF900895FC0180E0E4
:1077C00090819C3049F49181943941F48C5F3496D6
:1077D0008433B1F781E0089580E0089580E0089552
:1077E00082E08093C00088E18093C10086E08093AE
:1077F000C20080E18093C40008959091C00095FF7D
:10780000FCCF8093C60008958F708A3008F0895F9E
:10781000805DF3CF8091C00087FFFCCF8091C000D6
:1078200084FD01C0A8958091C60008958091C00094
:1078300087FF04C027D081E080932A0181E008956A
:10784000809184009091850092FF05C025B130E2BF
:10785000232725B901C02D982091240130912501BD
:107860008217930750F420912601309127012F5F52
:107870003F4F309327012093260190932501809359
:10788000240108951092850010928400109227011F
:10789000109226010895E0E0F0E0859194912FEF99
:1078A0008F3F920751F081E020912601309127010E
:1078B0002530310518F480E0089580E00895EE2722
:1078C000FF2709940895FB01DC0102C005900D9289
:1078D00041505040D8F70895F999FECF92BD81BD2F
:1078E000F89A992780B50895262FF999FECF1FBAE7
:1078F00092BD81BD20BD0FB6F894FA9AF99A0FBED9
:0879000001960895F894FFCFF1
:1079080080C0A85401FFFFFF00DEADBEEFFEEDC052
:10791800A8548000000000000007D0080F020A00E9
:040000030000700089
:00000001FF
