:1070000050C00000C7C00000C5C00000C3C00000E1
:10701000C1C00000BFC00000BDC00000BBC0000078
:10702000B9C00000B7C00000B5C00000B3C0000088
:10703000B1C00000AFC00000ADC00000ABC0000098
:10704000A9C00000A7C00000A5C00000A3C00000A8
:10705000A1C000009FC000009DC000009BC00000B8
:1070600099C0000097C000001300050000496E762B
:10707000616C696420696D6167652066696C650093
:1070800008000500004572726F72000900050003D8
:1070900046756C6C000A000500004F70636F6465F4
:1070A0003F0011241FBECFEFD8E0DEBFCDBF11E0FF
:1070B000A0E0B1E0E8E6FBE702C005900D92A03247
:1070C000B107D9F711E0A0E2B1E001C01D92AF32E3
:1070D000B107E1F701D046C584B714BE98E10FB6F9
:1070E000F89490936000109260000FBE81FD01C083
:1070F0001ED48FEF95EAAEE081509040A040E1F7BA
:1071000000C00000112485E08093810080E090E0C1
:1071100013D5882321F080E090E060E015D581E070
:1071200090E00AD5843021F081E090E064E00CD555
:107130008ED39BD0A5D090D210922D0110922E010B
:1071400013E0C0E0D0E080912D01882319F4A7D28C
:107150008823E9F080912E01882319F49ED3882397
:10716000B1F0D1D3882389F082E090E0E5D48E3E5F
:1071700071F080912E01813041F4FE01109357008F
:10718000E8956AD2B7D310922E0192D3DCCFCFD339
:1071900080E090E035CF20E52CBD2A98292F3327B9
:1071A0002EBD0DB407FEFDCF8EBD0DB407FEFDCF85
:1071B00080E88EBD0DB407FEFDCF81E08EBD0DB41D
:1071C00007FEFDCF4EBD0DB407FEFDCF2A9A1CBCB5
:1071D0000895EF92FF921F93CF93DF93EC01162F48
:1071E0007A01452F5527D7DFCE010196612F4E2D0D
:1071F000D2DFDF91CF911F91FF90EF90089520E5AE
:107200002CBD2A98292F33272EBD0DB407FEFDCFA4
:107210008EBD0DB407FEFDCF1EBC0DB407FEFDCF25
:1072200081E08EBD0DB407FEFDCF1EBC0DB407FE80
:10723000FDCF2A9A8EB51CBC08950F931F93CF9350
:10724000DF93EC01162FDBDF082FCE010196612FB3
:10725000D6DF202F30E0322F222790E0822B932B95
:10726000DF91CF911F910F9108958CE285B984B978
:1072700024985C9A549A81E58CBD81E08DBD089577
:107280000F931F93CF93DF9383E090E055D4853520
:1072900091F484E090E050D48A3A69F401E011E07E
:1072A000C5E0D0E0CE0148D4F80181938F0121964A
:1072B000C731D105B9F780E090E060E0409100016E
:1072C0006ADFCFE1D0E4CE0160E042E064DFCE01CE
:1072D000019760E042E05FDFC050DF4FF8E4CF315C
:1072E000DF0789F709E011E0C9E0D0E0F80141913A
:1072F0008F01CE0160E04FDF2196CF30D105B1F78D
:107300000FE011E0CFE0D0E0F80141918F01CE0114
:1073100060E041DF2196C331D105B1F701E011E012
:10732000C1E0D0E0F80141918F01CE0160E033DF90
:107330002196C530D105B1F705E011E0C5E0D0E0F8
:10734000F80141918F01CE0160E025DF2196C9301F
:10735000D105B1F7DF91CF911F910F910895CF9390
:10736000DF93EC0181E093E46CE640E114DF81E01F
:1073700093E468E644DF8823D1F782E093E46CE687
:107380004FEF09DF80E093E46CE642E004DF84E045
:1073900093E46CE6AE011DDF81E093E46CE641E02E
:1073A000FADE81E093E468E62ADF8823D1F783E000
:1073B00093E468E624DF823229F081E093E46CE60E
:1073C00040E1E9DE83E093E468E619DF8232A9F662
:1073D000DF91CF910895BF92CF92DF92EF92FF920B
:1073E0000F931F93CF93DF93CDB7DEB7CC50D2402E
:1073F000DEBFCDBF88E293E468E61FDFAC010097F3
:1074000011F440E058EDADE0CA2EA2E0DA2ECC0E29
:10741000DD1E7E010894E11CF11C10C08A010F5F83
:107420001F4FCA0160E0EBDEF70181937F01F0EEB0
:1074300000301F0711F400E018EDA801EC14FD0462
:1074400069F788E293E46CE6C4DE81E093E46CE6DD
:1074500040E4A1DE81E093E468E6D1DE8823D1F741
:107460008E010F5F1F4FFCE0EF2EF3E4FF2EF801BB
:1074700041918F01C7016CE68EDE0894E11CF11C7E
:10748000F2E1EF16F3E4FF0691F7EF80FF24FE2C04
:10749000EE248885E80EF11C898590E0982F8827D6
:1074A0002A85820F911D0B8510E0102F00272C8557
:1074B000020F111D8330910589F40933110560F421
:1074C00020912001309121010217130728F02F5F2E
:1074D0003F4F2017310710F480E090E025E0E216DE
:1074E00022E0F20608F09DC08330910529F1843036
:1074F000910548F48130910509F49AC082309105D4
:1075000009F08FC005C08630910508F08AC090C090
:10751000F1D182E090E06FEF17D380912B01909131
:107520002C011DDF109221011092200110922301E5
:107530001092220102E081C0DDD14CEFC42E4FEF4A
:10754000D42ECE0CDF1C109323010093220178016E
:107550000894E108F108FE2CEE24FF0CC7018C0D05
:107560009D1DE0E781309E0708F064C0F0E0CF1673
:10757000F2E0DF0610F404E005C002E003C0089466
:10758000C11CD11CC6018F7790700097C1F7E11420
:10759000F10431F4CE010D9648D1882309F44CC092
:1075A000DE011E9640E050E061E073E015E031E15D
:1075B000B32E2DC08C9190E0382F2227FD013197FA
:1075C000808190E0282B392BF70109016093570047
:1075D000E89511244E5F5F4FCA018F779070009736
:1075E00089F4EE57F04070935700E89507B600FC19
:1075F000FDCF10935700E89507B600FCFDCFB09281
:107600005700E895129682E090E0E80EF91E4C15BE
:107610005D0580F2043089F482E090E06EEE94D251
:107620000CC080912B0190912C0199DE01E005C0E6
:1076300000E003C003E001C005E0802FC45FDD4F20
:10764000DEBFCDBFDF91CF911F910F91FF90EF90E3
:10765000DF90CF90BF900895CF9385E490E07FDED8
:1076600087E190E069D28B3B91F489E190E064D2AC
:10767000C82F88E190E060D22C2F30E0322F2227F3
:10768000280F311D30932C0120932B0106C089E770
:1076900097EB90932C0180932B01CF910895AF929B
:1076A000BF92CF92DF92FF920F931F93CF93DF93FE
:1076B000CDB7DEB7C556D040DEBFCDBF86E293E47E
:1076C00068E6BBDD009709F4A1C081E080932E013C
:1076D0000EC082E093E46CE644E05DDD8FEF97E856
:1076E000A3E181509040A040E1F700C0000082E09B
:1076F00093E468E684DD82FDECCF6DDEF82E84E253
:1077000093E460E09ADDC12C08E9D02EC80ED91EA2
:1077100092E0F91659F19F1520F0A1E0FA1639F41C
:1077200013C0B3E0FB16C9F0E4E0FE1671F1CE0120
:10773000019660E870E74AE050E0F5D12AE05E018A
:107740000894A11CB11C2CC0CE01019665E970E71C
:107750004CE050E0E8D12CE0F2CFCE0101966BE88E
:1077600070E749E050E0DFD129E0E9CF80912201C4
:107770009091230120912001309121012817390790
:1077800020F49093210180932001198284E08A8360
:1077900080912201909123019B838C8324E0CFCFA1
:1077A00086010F5F1F4FD5014D915D01C60164E752
:1077B000A6962FAFA697EFDCA6962FADA697B0EAB8
:1077C00000301B0711F0680103C0C12C18E9D12E4D
:1077D000215031F7A6014050584984E293E46CE609
:1077E000F8DC81E093E46CE640E2D5DC81E093E4F0
:1077F00068E605DD8823D1F7E4E0FE1639F481E080
:1078000093E46CE640E1C7DC80E001C081E0CB5945
:10781000DF4FDEBFCDBFDF91CF911F910F91FF9062
:10782000DF90CF90BF90AF900895FC0180E09081F1
:107830009C3049F49181943941F48C5F34968433BF
:10784000B1F781E0089580E0089580E0089582E036
:107850008093C00088E18093C10086E08093C200DD
:1078600080E18093C40008959091C00095FFFCCF03
:107870008093C60008958F708A3008F0895F805D1C
:10788000F3CF8091C00087FFFCCF8091C00084FDC2
:1078900001C0A8958091C60008958091C00087FF1F
:1078A00005C028D081E080932D0159C081E0089562
:1078B000809184009091850092FF05C025B130E24F
:1078C000232725B901C02D9820912401309125014D
:1078D0008217930750F420912601309127012F5FE2
:1078E0003F4F3093270120932601909325018093E9
:1078F00024010895109285001092840010922701AF
:10790000109226010895E0E0F0E0859194912FEF28
:107910008F3F920751F081E020912601309127019D
:107920002530310518F480E0089580E00895EE27B1
:10793000FF2709940895A5DF803239F088E180930C
:10794000600088E080936000FFCF84E18DCFCF930B
:10795000C82F97DFC150E9F7EEDFCF9108950F935D
:107960001F93CF93DF93CDB7DEB7C150D140DEBFB9
:10797000CDBF87DF8134A9F484DFCF5FDE4F8883FA
:10798000C150D140D8DFCF5FDE4F8881C150D14098
:10799000823811F484E003C0813811F183E064DFA0
:1079A000B6C0823411F484E103C0853419F484E054
:1079B000CEDFADC0853581F464DF082F10E061DFD4
:1079C00090E0982F8827802B912B880F991F9093F8
:1079D0002901809328019AC0863521F484E0B7DF1D
:1079E00080E0DDCF843609F061C04BDF4ADF809351
:1079F0002A0147DFE0912801F091290180E7E0307A
:107A0000F80720F483E080935700E8958E010F5F1C
:107A10001F4F37DFF80181938F0180912A01815038
:107A200080932A018823A9F7E0912801F091290188
:107A300080E7E030F80720F083E080935700E89576
:107A40007ADF07B600FCFDCF609128017091290113
:107A50000981FB0140E451E09E012F5F3F4F261B4F
:107A6000370B10E0D901AE0FBF1F11968C91119703
:107A700090E0982F8827802B912B0C015093570072
:107A8000E8951124415029F012960C9112973296E4
:107A9000E8CF85E0FB0180935700E89507B600FC2E
:107AA000FDCF81E180935700E89531C08437D1F450
:107AB000E8DEE7DE80932A01E4DE3DDFE091280185
:107AC000F0912901CF01019690932901809328011B
:107AD0008491CADE80912A01815080932A018823F3
:107AE00069F715C0853739F426DF8EE1BDDE85E9FB
:107AF000BBDE8FE054CF813549F41DDF82E090E09A
:107B00006EEE22D080E1B0DE80E004C014DF80E1C0
:107B1000ABDE81E0CF5FDE4FDEBFCDBFDF91CF9127
:107B20001F910F910895FB01DC0102C005900D9299
:107B300041505040D8F70895F999FECF92BD81BDCC
:107B4000F89A992780B50895262FF999FECF1FBA84
:107B500092BD81BD20BD0FB6F894FA9AF99A0FBE76
:087B600001960895F894FFCF8F
:107B680080C0A85401FFFFFF00DEADBEEFFEEDC0F0
:107B7800A854800000000007D00800000F020A0087
:040000030000700089
:00000001FF
