:020000021000EC
:10F0000062C000001FC100001DC100001BC1000044
:10F0100019C1000017C1000015C1000013C1000094
:10F0200011C100000FC100000DC100000BC10000A4
:10F0300009C1000007C1000005C1000003C10000B4
:10F0400001C10000FFC00000FDC00000FBC00000C7
:10F05000F9C00000F7C00000F5C00000F3C00000D8
:10F06000F1C00000EFC00000EDC00000EBC00000E8
:10F07000E9C00000E7C00000E5C00000E3C00000F8
:10F08000E1C00000DFC00000DDC00000130005008B
:10F0900000496E76616C696420696D616765206600
:10F0A000696C650008000500004572726F72000906
:10F0B0000005000346756C6C000A000500004F70E7
:10F0C000636F64653F0011241FBECFEFD0E4DEBF45
:10F0D000CDBF11E0A0E0B1E0E6E6FAEF01E00BBF42
:10F0E00002C007900D92A032B107D9F71BBE11E004
:10F0F000A0E2B1E001C01D92AC32B107E1F701D04E
:10F10000B0C484B714BE98E10FB6F8949093600031
:10F11000109260000FBE2FEF35EA4EE021503040D4
:10F120004040E1F700C00000579A549A83FD2AC07E
:10F130008BB180588BB988E087B988B92FEF31EE51
:10F1400044E0215030404040E1F700C0000018B8D2
:10F150002FEF39E648E1215030404040E1F700C050
:10F16000000088B92FEF31EE44E02150304040409C
:10F17000E1F700C00000909360008CE08093600095
:10F180005F98FFCF112485E08093810080E090E0BC
:10F1900052D4882321F080E090E060E054D481E0F4
:10F1A00090E049D4843021F081E090E064E04BD4D9
:10F1B0004D9B13C08EE390E03ED4813029F082E075
:10F1C00090E039D48E3E31F08EE390E060E03BD4A5
:10F1D000C1E004C023D4C0E001C0C1E0ACD392D0F0
:10F1E0009AD0A1D210922A0110922B01D3E0CC2404
:10F1F000DD24760180912A01882319F4B7D288236F
:10F20000D1F0F5D38823A9F0C13099F082E090E0E5
:10F2100012D48E3E81F080912B01813051F4F601A1
:10F22000E0925B00D0935700E8957DD2D7D310923F
:10F230002B01B1D3DFCF88E1809360008CE0809315
:10F240006000FFCFDDCE20E52CBD2C98292F332781
:10F250002EBD0DB407FEFDCF8EBD0DB407FEFDCF54
:10F260006EBD0DB407FEFDCF4EBD0DB407FEFDCF44
:10F270002C9A1CBC0895EF92FF921F93CF93DF93BB
:10F28000EC01162F7A01452F5527DDDFCE010196BF
:10F29000612F4E2DD8DFDF91CF911F91FF90EF901E
:10F2A000089520E52CBD2C98292F33272EBD0DB4B1
:10F2B00007FEFDCF8EBD0DB407FEFDCF6EBD0DB4B4
:10F2C00007FEFDCF1EBC0DB407FEFDCF2C9A8EB5F8
:10F2D0001CBC08950F931F93CF93DF93EC01162F5F
:10F2E000E0DF082FCE010196612FDBDF202F30E019
:10F2F000322F222790E0822B932BDF91CF911F9109
:10F300000F91089580EF85B980EB84B9479A3F9AB1
:10F3100081E08DBD08950F931F93CF93DF9383E01A
:10F3200090E089D3853591F484E090E084D38A3AE3
:10F3300069F401E011E0C5E0D0E0CE017CD3F80132
:10F3400081938F012196C731D105B9F700E011E013
:10F35000C0E0D0E0F80141918F01CE0164E073DF9D
:10F360002196CC31D105B1F7C0E00C2F0295000FEA
:10F37000007E045F8EE190E0602F42E064DF8FE169
:10F3800090E0602F42E05FDFCF5FC83071F7DF9120
:10F39000CF911F910F910895CF93DF93EC0181E0FE
:10F3A00090E06CE640E14FDF81E090E068E679DFD5
:10F3B0008823D1F782E090E06CE64FEF44DF80E0F5
:10F3C00090E06CE642E03FDF84E090E06CE6AE0166
:10F3D00052DF81E090E06CE641E035DF81E090E0D3
:10F3E00068E65FDF8823D1F783E090E068E659DFC5
:10F3F000823229F081E090E06CE640E124DF83E096
:10F4000090E068E64EDF8232A9F6DF91CF91089551
:10F410002F923F924F925F926F927F928F929F9224
:10F42000AF92BF92CF92DF92EF92FF920F931F9312
:10F43000CF93DF93CDB7DEB7CC50D240DEBFCDBF88
:10F4400088E290E068E646DFAC01FDE0CF2EF2E016
:10F45000DF2ECC0EDD1E7E010894E11CF11C10C0D5
:10F460008A010F5F1F4FCA0168E71BDFD7018D9329
:10F470007D01BFEF0F3F1B0711F400E010E0A80172
:10F48000EC14FD0469F788E290E06CE6F4DE81E0BC
:10F4900090E06CE640E4D7DE81E090E068E601DFD2
:10F4A0008823D1F78E010F5F1F4FECE0EE2EF12C79
:10F4B000F80141918F01C7016CE6C5DE0894E11C9B
:10F4C000F11CF2E1EF16F10499F7EF80FF24FE2C16
:10F4D000EE248885E80EF11C898590E0982F882716
:10F4E0002A85820F911D0B8510E0102F00272C8597
:10F4F000020F111D8330910589F4093F110560F455
:10F5000020912001309121010217130728F02F5F6D
:10F510003F4F2017310710F480E090E025E0E2161D
:10F5200022E0F20608F0DDC08330910529F1843035
:10F53000910548F48130910509F4DAC082309105D3
:10F5400009F0CFC005C08630910508F0CAC0D0C010
:10F5500045D282E090E06FEF76D2809128019091C1
:10F5600029011ADF1092210110922001109223012B
:10F570001092220102E0BFC031D29CEF892E9FEF92
:10F58000992E8E0C9F1C1093230100932201015091
:10F5900010406801EE24FF2429E0CC0CDD1CEE1C99
:10F5A000FF1C2A95D1F78FEF9FEFA0E0B0E0C822B3
:10F5B000D922EA22FB22000F012F001F110B119507
:10F5C00020E030E0980111270027C02AD12AE22A42
:10F5D000F32AC401A0E0B0E08C0D9D1DAE1DBF1D3F
:10F5E0008130E0EF9E07E1E0AE07E0E0BE0708F003
:10F5F00081C0F0E08F16F2E09F0610F404E005C031
:10F6000002E003C00894811C911C8820D9F7C11422
:10F61000D104E104F10419F4CE010D967AD1FEE093
:10F62000AF2EB12CAC0EBD1E20E030E011E0412C1D
:10F63000AFEF5A2EAFEF6A2EAFEF7A2E4C0C5D1C57
:10F640006E1C7F1CB3E03B2E85E0282E3FC0A90135
:10F6500060E070E04C0D5D1D6E1D7F1DD5018C912D
:10F6600090E0B82FAA27F5013197808190E0A82B70
:10F67000B92B0D01FA0160935B0010935700E895D8
:10F6800011242E5F3F4F2223E9F4C901A0E0B0E02E
:10F69000840D951DA61DB71DFC01A0935B00309243
:10F6A0005700E89507B600FCFDCFFC01A0935B0076
:10F6B00020925700E89507B600FCFDCFB1E1B0936A
:10F6C0005700E895E2E0F0E0AE0EBF1E28153905C0
:10F6D00008F4BDCF043079F482E090E06EEEB3D14F
:10F6E0000AC0809128019091290156DE01E003C0F3
:10F6F00000E001C003E0802FC45FDD4FDEBFCDBF5F
:10F70000DF91CF911F910F91FF90EF90DF90CF90FD
:10F71000BF90AF909F908F907F906F905F904F9031
:10F720003F902F900895CF9385E490E035DE87E1F8
:10F7300090E081D18B3B91F489E190E07CD1C82F9E
:10F7400088E190E078D12C2F30E0322F2227280F4B
:10F75000311D309329012093280106C089E797EBDA
:10F760009093290180932801CF910895AF92BF9281
:10F77000CF92DF92FF920F931F93CF93DF93CDB77A
:10F78000DEB7C556D040DEBFCDBF86E290E068E66A
:10F79000A1DD009709F4AEC081E080932B010EC07B
:10F7A00082E090E06CE644E04EDD8FEF97E8A3E165
:10F7B00081509040A040E1F700C0000082E090E05E
:10F7C00068E66FDD82FDECCF23DEF82E84E290E068
:10F7D00068E680DD5C0192E0F91609F43EC09F15F1
:10F7E00020F0A1E0FA1641F41AC0B3E0FB1631F1A3
:10F7F000E4E0FE1609F440C044EA50EF60E070E037
:10F80000405050406F4F7F4FCE0101962AE030E0CC
:10F8100009D12AE06E010894C11CD11C38C049EB03
:10F8200050EF60E070E0405050406F4F7F4FCE018E
:10F8300001962CE030E0F6D02CE0ECCF4FEA50EF10
:10F8400060E070E0405050406F4F7F4FCE01019616
:10F8500029E030E0E7D029E0DDCF809122019091CE
:10F86000230120912001309121012817390720F42C
:10F870009093210180932001198284E08A838091F2
:10F880002201909123019B838C8324E0C3CF8501C7
:10F890000F5F1F4FD6014D916D01C50164E7A6961C
:10F8A0002FAFA697D0DCA6962FADA697BFEF0F3F40
:10F8B0001B0711F0580102C0AA24BB24215039F7BC
:10F8C00084E290E06CE6A501D6DC81E090E06CE695
:10F8D00040E2B9DC81E090E068E6E3DC8823D1F720
:10F8E000E4E0FE1639F481E090E06CE640E1ABDC48
:10F8F00080E001C081E0CB59DF4FDEBFCDBFDF919B
:10F90000CF911F910F91FF90DF90CF90BF90AF905C
:10F910000895FC0180E090819C3049F491819439F4
:10F9200041F48C5F34968433B1F781E0089580E030
:10F93000089580E0089582E08093C00088E180937C
:10F94000C10086E08093C20080E18093C4000895E6
:10F950009091C00095FFFCCF8093C60008958F70F2
:10F960008A3008F0895F805DF3CF8091C00087FF07
:10F97000FCCF8091C00084FD01C0A8958091C60095
:10F9800008958091C00087FF04C028D081E0809353
:10F990002A0181E00895809184009091850092FF72
:10F9A00007C04F9B02C05F9803C02BB120582BB9F2
:10F9B00020912401309125018217930750F4209162
:10F9C0002601309127012F5F3F4F3093270120936D
:10F9D00026019093250180932401089510928500BB
:10F9E000109284001092270110922601089580E061
:10F9F00090E0DC01ABBFFC01879196912FEF8F3F28
:10FA0000920751F081E020912601309127012530A5
:10FA1000310518F480E0089580E00895EE27FF276F
:10FA200009940895FA01DC0102C005900D9221505D
:10FA30003040D8F70895F999FECF92BD81BDF89A6C
:10FA4000992780B50895262FF999FECF1FBA92BD48
:10FA500081BD20BD0FB6F894FA9AF99A0FBE0196AF
:06FA60000895F894FFCFA9
:10FA660080C0A85401FFFFFF00DEADBEEFFEEDC073
:10FA7600A8548000000000000007D0080F020A000A
:040000031000F000F9
:00000001FF
