:1070000050C00000D6C00000D4C00000D2C00000B4
:10701000D0C00000CEC00000CCC00000CAC000003C
:10702000C8C00000C6C00000C4C00000C2C000004C
:10703000C0C00000BEC00000BCC00000BAC000005C
:10704000B8C00000B6C00000B4C00000B2C000006C
:10705000B0C00000AEC00000ACC00000AAC000007C
:10706000A8C00000A6C000001300050000496E760D
:10707000616C696420696D6167652066696C650093
:1070800008000500004572726F72000900050003D8
:1070900046756C6C000A000500004F70636F6465F4
:1070A0003F0011241FBECFEFD8E0DEBFCDBF11E0FF
:1070B000A0E0B1E0E4E9F9E702C005900D92A0324A
:1070C000B107D9F711E0A0E2B1E001C01D92AC32E6
:1070D000B107E1F701D05CC4C4B714BE88E10FB6B4
:1070E000F89480936000109260000FBE8FEF95EAD5
:1070F000AEE081509040A040E1F700C000001124B4
:1071000085E08093810080E090E02CD4882321F0FA
:1071100080E090E060E02ED481E090E023D48430E1
:1071200021F081E090E064E025D48EE390E01AD471
:10713000813031F48EE390E060E01CD411E008C0AF
:10714000823011F0C1FD03C000D410E001C010E096
:107150008DD39AD0A4D08FD210922A0110922B01F5
:1071600003E0C0E0D0E080912A01882319F4A6D280
:107170008823C1F0D6D3882399F0113089F082E0BA
:1071800090E0F0D38E3E71F080912B01813041F47C
:10719000FE0100935700E8956ED2BAD310922B01EE
:1071A00095D3E1CF88E1809360008CE0809360000C
:1071B000FFCF26CF20E52CBD2A98292F33272EBDBF
:1071C0000DB407FEFDCF8EBD0DB407FEFDCF80E8E8
:1071D0008EBD0DB407FEFDCF81E08EBD0DB407FE60
:1071E000FDCF4EBD0DB407FEFDCF2A9A1CBC0895FD
:1071F000EF92FF921F93CF93DF93EC01162F7A014A
:10720000452F5527D7DFCE010196612F4E2DD2DFB6
:10721000DF91CF911F91FF90EF90089520E52CBD55
:107220002A98292F33272EBD0DB407FEFDCF8EBD22
:107230000DB407FEFDCF1EBC0DB407FEFDCF81E0EF
:107240008EBD0DB407FEFDCF1EBC0DB407FEFDCFF5
:107250002A9A8EB51CBC08950F931F93CF93DF938A
:10726000EC01162FDBDF082FCE010196612FD6DF50
:10727000202F30E0322F222790E0822B932BDF91BA
:10728000CF911F910F9108958CE285B984B924980C
:107290005C9A549A81E58CBD81E08DBD08950F9371
:1072A0001F93CF93DF9383E090E05CD3853591F417
:1072B00084E090E057D38A3A69F401E011E0C5E038
:1072C000D0E0CE014FD3F80181938F012196C731D1
:1072D000D105B9F780E090E060E0409100016ADFFD
:1072E000CFE1D0E4CE0160E042E064DFCE0101975F
:1072F00060E042E05FDFC050DF4FF8E4CF31DF07EE
:1073000089F709E011E0C9E0D0E0F80141918F016F
:10731000CE0160E04FDF2196CF30D105B1F70FE00D
:1073200011E0CFE0D0E0F80141918F01CE0160E0A3
:1073300041DF2196C331D105B1F701E011E0C1E091
:10734000D0E0F80141918F01CE0160E033DF21965A
:10735000C530D105B1F705E011E0C5E0D0E0F80196
:1073600041918F01CE0160E025DF2196C930D10522
:10737000B1F7DF91CF911F910F910895CF93DF93D4
:10738000EC0181E093E46CE640E114DF81E093E4FA
:1073900068E644DF8823D1F782E093E46CE64FEFA0
:1073A00009DF80E093E46CE642E004DF84E093E4EC
:1073B0006CE6AE011DDF81E093E46CE641E0FADEAD
:1073C00081E093E468E62ADF8823D1F783E093E441
:1073D00068E624DF823229F081E093E46CE640E144
:1073E000E9DE83E093E468E619DF8232A9F6DF91F3
:1073F000CF910895BF92CF92DF92EF92FF920F93B9
:107400001F93CF93DF93CDB7DEB7CC50D240DEBF12
:10741000CDBF88E293E468E61FDFAC01009711F46A
:1074200040E058EDADE0CA2EA2E0DA2ECC0EDD1E13
:107430007E010894E11CF11C10C08A010F5F1F4FF0
:10744000CA0160E0EBDEF70181937F01F0EE0030CE
:107450001F0711F400E018EDA801EC14FD0469F712
:1074600088E293E46CE6C4DE81E093E46CE640E4F9
:10747000A1DE81E093E468E6D1DE8823D1F78E01B6
:107480000F5F1F4FFCE0EF2EF3E4FF2EF801419158
:107490008F01C7016CE68EDE0894E11CF11CF2E15D
:1074A000EF16F3E4FF0691F7EF80FF24FE2CEE24A5
:1074B0008885E80EF11C898590E0982F88272A8519
:1074C000820F911D0B8510E0102F00272C85020FD5
:1074D000111D8330910589F40933110560F4209161
:1074E0002001309121010217130728F02F5F3F4F31
:1074F0002017310710F480E090E025E0E21622E04A
:10750000F20608F09DC08330910529F18430910581
:1075100048F48130910509F49AC08230910509F050
:107520008FC005C08630910508F08AC090C0F0D1A8
:1075300082E090E06FEF1ED28091280190912901A6
:107540001DDF109221011092200110922301109250
:10755000220102E081C0DCD14CEFC42E4FEFD42ECB
:10756000CE0CDF1C109323010093220178010894B4
:10757000E108F108FE2CEE24FF0CC7018C0D9D1DC7
:10758000E0E781309E0708F064C0F0E0CF16F2E03B
:10759000DF0610F404E005C002E003C00894C11C3B
:1075A000D11CC6018F7790700097C1F7E114F104E8
:1075B00031F4CE010D9648D1882309F44CC0DE0188
:1075C0001E9640E050E061E073E015E031E1B32E3B
:1075D0002DC08C9190E0382F2227FD0131978081BA
:1075E00090E0282B392BF701090160935700E895AB
:1075F00011244E5F5F4FCA018F779070009789F416
:10760000EE57F04070935700E89507B600FCFDCFA9
:1076100010935700E89507B600FCFDCFB0925700D5
:10762000E895129682E090E0E80EF91E4C155D0593
:1076300080F2043089F482E090E06EEE9BD10CC0C1
:10764000809128019091290199DE01E005C000E0B8
:1076500003C003E001C005E0802FC45FDD4FDEBF43
:10766000CDBFDF91CF911F910F91FF90EF90DF90F1
:10767000CF90BF900895CF9385E490E07FDE87E1BF
:1076800090E070D18B3B91F489E190E06BD1C82FF1
:1076900088E190E067D12C2F30E0322F2227280F8D
:1076A000311D309329012093280106C089E797EB0B
:1076B0009093290180932801CF910895AF92BF92B2
:1076C000CF92DF92FF920F931F93CF93DF93CDB7AB
:1076D000DEB7C556D040DEBFCDBF86E293E468E694
:1076E000BBDD009709F4A1C081E080932B010EC09F
:1076F00082E093E46CE644E05DDD8FEF97E8A3E180
:1077000081509040A040E1F700C0000082E093E487
:1077100068E684DD82FDECCF6DDEF82E84E293E432
:1077200060E09ADDC12C08E9D02EC80ED91E92E087
:10773000F91659F19F1520F0A1E0FA1639F413C09B
:10774000B3E0FB16C9F0E4E0FE1671F1CE0101963C
:1077500060E870E74AE050E0FCD02AE05E0108945F
:10776000A11CB11C2CC0CE01019665E970E74CE06C
:1077700050E0EFD02CE0F2CFCE0101966BE870E73D
:1077800049E050E0E6D029E0E9CF809122019091D4
:10779000230120912001309121012817390720F47D
:1077A0009093210180932001198284E08A83809143
:1077B0002201909123019B838C8324E0CFCF86010B
:1077C0000F5F1F4FD5014D915D01C60164E7A6967D
:1077D0002FAFA697EFDCA6962FADA697B0EA0030A4
:1077E0001B0711F0680103C0C12C18E9D12E2150EC
:1077F00031F7A6014050584984E293E46CE6F8DC86
:1078000081E093E46CE640E2D5DC81E093E468E655
:1078100005DD8823D1F7E4E0FE1639F481E093E436
:107820006CE640E1C7DC80E001C081E0CB59DF4F6E
:10783000DEBFCDBFDF91CF911F910F91FF90DF9001
:10784000CF90BF90AF900895FC0180E090819C3074
:1078500049F49181943941F48C5F34968433B1F7C3
:1078600081E0089580E0089580E0089582E08093AB
:10787000C00088E18093C10086E08093C20080E16F
:107880008093C40008959091C00095FFFCCF809331
:10789000C60008958F708A3008F0895F805DF3CF4D
:1078A0008091C00087FFFCCF8091C00084FD01C0A3
:1078B000A8958091C60008958091C00087FF04C0FC
:1078C00027D081E080932A0181E00895809184008F
:1078D0009091850092FF05C025B130E2232725B99C
:1078E00001C02D9820912401309125018217930722
:1078F00050F420912601309127012F5F3F4F3093A4
:107900002701209326019093250180932401089557
:107910001092850010928400109227011092260187
:107920000895E0E0F0E0859194912FEF8F3F92076A
:1079300051F081E020912601309127012530310559
:1079400018F480E0089580E00895EE27FF27099459
:107950000895FB01DC0102C005900D92415050409A
:10796000D8F70895F999FECF92BD81BDF89A99276D
:1079700080B50895262FF999FECF1FBA92BD81BD1B
:1079800020BD0FB6F894FA9AF99A0FBE01960895A1
:04799000F894FFCF99
:1079940080C0A85401FFFFFF00DEADBEEFFEEDC0C6
:1079A400A854800000000007D00800000F020A005D
:040000030000700089
:00000001FF
