:020000023000CC
:10E000008EC000001EC100001CC100001AC100002B
:10E0100018C1000016C1000014C1000012C10000A8
:10E0200010C100000EC100000CC100000AC10000B8
:10E0300008C1000006C1000004C1000002C10000C8
:10E0400000C10000FEC00000FCC00000FAC00000DB
:10E05000F8C00000F6C00000F4C00000F2C00000EC
:10E06000F0C00000EEC00000ECC00000EAC00000FC
:10E07000E8C00000E6C00000E4C00000E2C000000C
:10E08000E0C00000DEC00000DCC00000DAC000001C
:10E09000D8C00000D6C00000D4C00000D2C000002C
:10E0A000D0C00000CEC00000CCC00000CAC000003C
:10E0B000C8C00000C6C00000C4C00000C2C000004C
:10E0C000C0C00000BEC00000BCC00000BAC000005C
:10E0D000B8C00000B6C00000B4C00000B2C000006C
:10E0E000B0C000001300050000496E76616C6964E1
:10E0F00020696D6167652066696C65000800050030
:10E10000004572726F7200090005000346756C6C61
:10E11000000A000500004F70636F64653F00112422
:10E120001FBECFEFD1E2DEBFCDBF01E00CBF12E0DA
:10E13000A0E0B2E0E2E6FAEE03E00BBF02C0079017
:10E140000D92A032B107D9F71BBE12E0A0E2B2E0F7
:10E1500001C01D92AC32B107E1F701D080C414BEFA
:10E1600088E10FB6F89480936000109260000FBEB3
:10E170008FEF95EAAEE081509040A040E1F700C0FB
:10E180000000112485E08093810080E090E051D46C
:10E19000882321F080E090E060E053D481E090E0BB
:10E1A00048D4843021F081E090E064E04AD44D9B73
:10E1B00013C08EE390E03DD4813029F082E090E0FE
:10E1C00038D48E3E31F08EE390E060E03AD4C1E086
:10E1D00004C022D4C0E001C0C1E0ADD394D0A0D02F
:10E1E0009BD210922A0210922B02D3E0CC24DD2481
:10E1F000760180912A02882319F4B1D28823D1F0C4
:10E20000F4D38823A9F0C13099F082E090E011D4D2
:10E210008E3E81F080912B02813051F4F601E09224
:10E220005B00D0935700E89577D2D6D310922B029B
:10E23000B2D3DFCF88E1809360008CE080936000F0
:10E24000FFCFDECE20E52CBD2C9820EF2EBD0DB4E7
:10E2500007FEFDCF292F33272EBD0DB407FEFDCFBE
:10E260008EBD0DB407FEFDCF4EBD0DB407FEFDCF34
:10E270002C9A1CBC0895EF92FF921F93CF93DF93CB
:10E28000EC01162F7A01452F5527DCDFCE010196D0
:10E29000612F4E2DD7DFDF91CF911F91FF90EF902F
:10E2A000089520E52CBD2C982FE02EBD0DB407FE5F
:10E2B000FDCF292F33272EBD0DB407FEFDCF8EBD18
:10E2C0000DB407FEFDCF1EBC0DB407FEFDCF2C9A8A
:10E2D0008EB51CBC08950F931F93CF93DF93EC0171
:10E2E000162FDFDF082FCE010196612FDADF202FF6
:10E2F00030E0322F222790E0822B932BDF91CF91B9
:10E300001F910F9108958FE085B987E084B92C9A09
:10E31000249AA59A9D9A2F9A279A81E08DBD0895F7
:10E320000F931F93CF93DF9383E090E082D38535E3
:10E3300091F484E090E07DD38A3A69F401E012E040
:10E34000C5E0D0E0CE0175D3F80181938F0121960D
:10E35000C731D105B9F700E012E0C0E0D0E0F80124
:10E3600041918F01CE0160E06DDF2196CC31D10566
:10E37000B1F7DF91CF911F910F910895CF93DF9364
:10E38000EC0181E097E06CE640E15CDF81E097E042
:10E3900068E687DF8823D1F782E097E06CE64FEFED
:10E3A00051DF80E097E06CE642E04CDF84E097E0EC
:10E3B0006CE6AE0160DF81E097E06CE641E042DFB1
:10E3C00081E097E068E66DDF8823D1F783E097E08E
:10E3D00068E667DF823229F081E097E06CE640E191
:10E3E00031DF83E097E068E65CDF8232A9F6DF91F7
:10E3F000CF9108952F923F924F925F926F927F92AA
:10E400008F929F92AF92BF92CF92DF92EF92FF9244
:10E410000F931F93CF93DF93CDB7DEB7CC50D2408D
:10E42000DEBFCDBF88E297E068E655DFAC0100971C
:10E4300011F440E058E7FDE0CF2EF2E0DF2ECC0EE5
:10E44000DD1E7E010894E11CF11C10C08A010F5FE3
:10E450001F4FCA0160E025DFD7018D937D01B0E831
:10E4600000301B0711F400E018E7A801EC14FD04CC
:10E4700069F788E297E06CE6FEDE81E097E06CE603
:10E4800040E4E0DE81E097E068E60BDF8823D1F727
:10E490008E010F5F1F4FECE0EE2EE7E0FE2EF8013D
:10E4A00041918F01C7016CE6CDDE0894E11CF11C9F
:10E4B000F2E1EF16F7E0FF0691F7EF80FF24FE2C64
:10E4C000EE248885E80EF11C898590E0982F882736
:10E4D0002A85820F911D0B8510E0102F00272C85B7
:10E4E000020F111D8330910591F421E0093F1207BD
:10E4F00060F420912002309121020217130728F0C6
:10E500002F5F3F4F2017310710F480E090E0A5E027
:10E51000EA16A2E0FA0608F0DDC08330910529F181
:10E520008430910548F48130910509F4DAC08230D5
:10E53000910509F0CFC005C08630910508F0CAC02A
:10E54000D0C04AD282E090E06FEF7BD28091280267
:10E550009091290213DF1092210210922002109252
:10E5600023021092220202E0BFC036D29CEF892E15
:10E570009FEF992E8E0C9F1C109323020093220272
:10E58000015010406801EE24FF2429E0CC0CDD1C72
:10E59000EE1CFF1C2A95D1F78FEF9FEFA0E0B0E0B3
:10E5A000C822D922EA22FB22000F012F001F110BE3
:10E5B000119520E030E0980111270027C02AD12AC8
:10E5C000E22AF32AC401A0E0B0E08C0D9D1DAE1D2F
:10E5D000BF1D8130E0EF9E07E3E0AE07E0E0BE073D
:10E5E00008F081C0F0E08F16F2E09F0610F404E01E
:10E5F00005C002E003C00894811C911C8820D9F753
:10E60000C114D104E104F10419F4CE010D9681D1B5
:10E61000FEE0AF2EB12CAC0EBD1E20E030E011E0CC
:10E62000412CAFEF5A2EAFEF6A2EAFEF7A2E4C0C83
:10E630005D1C6E1C7F1CB3E03B2E85E0282E3FC086
:10E64000A90160E070E04C0D5D1D6E1D7F1DD501C0
:10E650008C9190E0B82FAA27F5013197808190E046
:10E66000A82BB92B0D01FA0160935B0010935700A2
:10E67000E89511242E5F3F4F2223E9F4C901A0E061
:10E68000B0E0840D951DA61DB71DFC01A0935B0095
:10E6900030925700E89507B600FCFDCFFC01A0932F
:10E6A0005B0020925700E89507B600FCFDCFB1E172
:10E6B000B0935700E895E2E0F0E0AE0EBF1E2815DB
:10E6C000390508F4BDCF043079F482E090E06EEEB5
:10E6D000B8D10AC080912802909129024FDE01E052
:10E6E00003C000E001C003E0802FC45FDD4FDEBF48
:10E6F000CDBFDF91CF911F910F91FF90EF90DF90F1
:10E70000CF90BF90AF909F908F907F906F905F90D1
:10E710004F903F902F900895CF9385E490E02EDEA8
:10E7200087E190E086D18B3B91F489E190E081D143
:10E73000C82F88E190E07DD12C2F30E0322F2227A6
:10E74000280F311D309329022093280206C089E743
:10E7500097EB9093290280932802CF910895AF926E
:10E76000BF92CF92DF92FF920F931F93CF93DF93CD
:10E77000CDB7DEB7C556D040DEBFCDBF86E297E04D
:10E7800068E6A9DD009709F4B5C081E080932B020B
:10E790000EC082E097E06CE644E054DD8FEF97E82E
:10E7A000A3E181509040A040E1F700C0000082E06A
:10E7B00097E068E676DD82FDECCF1CDEF82E84E281
:10E7C00097E060E088DDA12C18E5B12EA80EB91EF7
:10E7D00092E0F91609F43EC09F1520F0A1E0FA1668
:10E7E00041F41AC0B3E0FB1631F1E4E0FE1609F47F
:10E7F00040C04CEF50EE60E070E0405050406D4F34
:10E800007F4FCE0101962AE030E00AD12AE06E0166
:10E810000894C11CD11C38C041E151EE60E070E0A9
:10E82000405050406D4F7F4FCE0101962CE030E0BC
:10E83000F7D02CE0ECCF47E051EE60E070E04050C4
:10E8400050406D4F7F4FCE01019629E030E0E8D077
:10E8500029E0DDCF809122029091230220912002B5
:10E86000309121022817390720F4909321028093D8
:10E870002002198284E08A838091220290912302EF
:10E880009B838C8324E0C3CF85010F5F1F4FD6018C
:10E890004D916D01C50164E7A6962FAFA697D2DC16
:10E8A000A6962FADA697B0E600301B0711F05801D1
:10E8B00003C0A12CB8E5BB2E215031F7A501405073
:10E8C000584584E297E06CE6D6DC81E097E06CE6A0
:10E8D00040E2B8DC81E097E068E6E3DC8823D1F72A
:10E8E000E4E0FE1639F481E097E06CE640E1AADC52
:10E8F00080E001C081E0CB59DF4FDEBFCDBFDF91AB
:10E90000CF911F910F91FF90DF90CF90BF90AF906C
:10E910000895FC0180E090819C3049F49181943904
:10E9200041F48C5F34968433B1F781E0089580E040
:10E93000089580E0089582E08093C00088E180938C
:10E94000C10086E08093C20080E18093C4000895F6
:10E950009091C00095FFFCCF8093C60008958F7002
:10E960008A3008F0895F805DF3CF8091C00087FF17
:10E97000FCCF8091C00084FD01C0A8958091C600A5
:10E9800008958091C00087FF04C026D081E0809365
:10E990002A0281E00895809184009091850092FF81
:10E9A00004C025B1205825B901C02F982091240218
:10E9B000309125028217930750F42091260230915E
:10E9C00027022F5F3F4F3093270220932602909318
:10E9D00025028093240208951092850010928400ED
:10E9E0001092270210922602089580E090E0DC0148
:10E9F000ABBFFC01879196912FEF8F3F920751F0AB
:10EA000081E020912602309127022530310518F44B
:10EA100080E0089580E00895EE27FF270994089587
:10EA2000FA01DC0102C005900D9221503040D8F768
:10EA30000895F999FECF92BD81BDF89A992780B5C6
:10EA40000895262FF999FECF1FBA92BD81BD20BD32
:10EA50000FB6F894FA9AF99A0FBE01960895F894B1
:02EA6000FFCFE6
:10EA620080C0A85401FFFFFF00DEADBEEFFEEDC087
:10EA7200A854800000000007D08055550F020A00FC
:040000033000E000E9
:00000001FF
