:1070000062C10000EEC10000ECC10000EAC1000056
:10701000E8C10000E6C10000E4C10000E2C10000D8
:10702000E0C10000DEC10000DCC10000DAC10000E8
:10703000D8C10000D6C10000D4C10000D2C10000F8
:10704000D0C10000CEC10000CCC10000CAC1000008
:10705000C8C10000C6C10000C4C10000C2C1000018
:10706000C0C10000BEC1000053746172742075730A
:107070006572206170700053454D426F6F742066D9
:107080006F722041726475696E6F20556E6F2C208F
:1070900056657273696F6E20302E36004D61696ED1
:1070A0003A20004E6574776F726B20696E697420A8
:1070B000646F6E650009202020204D41433A200076
:1070C00009476174657761793A2000092053756238
:1070D0006E65743A200009416464726573733A20E6
:1070E000004275696C742D696E2073657474696EE5
:1070F000677300454550524F4D2073657474696E37
:10710000677300204E65743A2000130005000049A3
:107110006E76616C696420696D6167652066696C73
:10712000650008000500004572726F7200090005D5
:10713000000346756C6C000A000500004F70636F19
:1071400064653F00496E697420736F636B657420DA
:10715000746F20706F727420000944617461506F05
:1071600072743A20005446545020736572766572EA
:1071700020696E697420646F6E6500526573706F6C
:107180006E73652073656E740053656E7420466976
:107190006E616C2041434B0053656E742041434B3C
:1071A00000496E76616C6964206F70636F6465205E
:1071B000004572726F720041636B6E6F776C65642D
:1071C000676500466C617368696E6720636F6D70F8
:1071D0006C657465005061636B6574206C656E67E7
:1071E00074682061646A757374656420746F20002C
:1071F00057726974696E6720646174612066726F8A
:107200006D20616464726573732000466C617368FD
:107210002069732066756C6C004368616E676564F5
:1072200020746F20706F727420004461746120625A
:107230006C6F636B00577269746520726571756558
:1072400073740052656164207265717565737400B2
:1072500020616E642064617461206C656E6774687F
:1072600020002077697468206F70636F6465200068
:107270005468697320697320626C6F636B200053DC
:1072800065742075702072657475726E2061646417
:1072900072657373004F766572666C6F770050721B
:1072A0006F63657373696E67207061636B657420CB
:1072B0006F662073697A652000546674703A200006
:1072C0003078000D0A0011241FBECFEFD8E0DEBFDA
:1072D000CDBF11E0A0E0B1E0ECE3FEE702C0059015
:1072E0000D92A032B107D9F711E0A0E2B1E001C0E0
:1072F0001D92AC32B107E1F701D09EC514BE88E102
:107300000FB6F89480936000109260000FBE8FEF6C
:1073100095EAAEE081509040A040E1F700C0000047
:10732000112485E08093810080E090E06FD5882370
:1073300021F080E090E060E071D581E090E066D5DA
:10734000843021F081E090E064E068D58EE390E045
:107350005DD5813041F089B185FF05C082E090E0C4
:1073600055D58E3E31F08EE390E060E057D511E0C8
:1073700002C03FD510E0CED48CE990E767E770E714
:107380006FD491D099D036D310922A0110922B014C
:1073900003E0C0E0D0E080912A01882319F45FD394
:1073A0008823C1F012D5882399F0113089F082E04A
:1073B00090E02CD58E3E71F080912B01813041F40C
:1073C000FE0100935700E89515D3F6D410922B01D7
:1073D000D1D4E1CF88E1809360008CE0809360009D
:1073E000FFCF0ECE20E52CBD2A9820EF2EBD0DB488
:1073F00007FEFDCF292F33272EBD0DB407FEFDCF8D
:107400008EBD0DB407FEFDCF4EBD0DB407FEFDCF02
:107410002A9A1CBC0895EF92FF921F93CF93DF939B
:10742000EC01162F7A01452F5527DCDFCE0101969E
:10743000612F4E2DD7DFDF91CF911F91FF90EF90FD
:10744000089520E52CBD2A982FE02EBD0DB407FE2F
:10745000FDCF292F33272EBD0DB407FEFDCF8EBDE6
:107460000DB407FEFDCF1EBC0DB407FEFDCF2A9A5A
:107470008EB51CBC08950F931F93CF93DF93EC013F
:10748000162FDFDF082FCE010196612FDADF202FC4
:1074900030E0322F222790E0822B932BDF91CF9187
:1074A0001F910F9108958CE385B98CE284B95C9AA1
:1074B000549A81E08DBD08950F931F93CF93DF936E
:1074C00083E090E0A3D48535B9F484E090E09ED4C5
:1074D0008A3A91F401E011E0C5E0D0E0CE0196D403
:1074E000F80181938F012196C731D105B9F783E067
:1074F00091E763EF70E704C083E091E761EE70E726
:10750000AFD383E091E766ED70E7AAD3CFE0D1E097
:107510001FE0699170E080E090E042E0D3D3123147
:1075200011F08EE204D41F5F133199F783E091E7E5
:107530006BEC70E795D3C5E0D1E015E0699170E0A0
:1075400080E090E042E0BED3183011F08EE2EFD33D
:107550001F5F193099F783E091E760EC70E780D303
:10756000C1E0D1E001E0699170E080E090E042E0AC
:10757000A9D3043011F08EE2DAD30F5F053099F70A
:1075800083E091E765EB70E76BD3C9E0D1E06991E7
:1075900070E080E090E042E095D31E3011F08EE282
:1075A000C6D31F5F1F3099F700E011E0C0E0D0E0C4
:1075B000F80141918F01CE0160E014DF2196CC31BA
:1075C000D105B1F783E091E763EA70E749D3DF9132
:1075D000CF911F910F910895CF93DF93EC0189EB29
:1075E00092E764E471E73CD3BE0180E090E044E0C0
:1075F00069D381E097E06CE640E1F4DE81E097E05A
:1076000068E61FDF8823D1F782E097E06CE64FEF52
:10761000E9DE80E097E06CE642E0E4DE84E097E0BB
:107620006CE6AE01F8DE81E097E06CE641E0DADE80
:1076300081E097E068E605DF8823D1F783E097E0F3
:1076400068E6FFDE823229F081E097E06CE640E1F7
:10765000C9DE83E097E068E6F4DE8232A9F6DF91C6
:10766000CF910895AF92BF92CF92DF92EF92FF92A7
:107670000F931F93CF93DF93CDB7DEB7CC50D2409B
:10768000DEBFCDBF8C0189EB92E76EE972E7E8D2ED
:10769000B80180E090E044E015D328E00030120704
:1076A00028F089EB92E765E972E7DAD288E297E0A1
:1076B00068E6E1DEAC01009711F440E058E71DE018
:1076C000C12E12E0D12ECC0EDD1E7E010894E11CED
:1076D000F11C10C08A010F5F1F4FCA0160E0B1DECC
:1076E000F70181937F01F0E800301F0711F400E0FB
:1076F00018E7A801EC14FD0469F788E297E06CE64E
:107700008ADE81E097E06CE640E46CDE81E097E0A1
:1077100068E697DE8823D1F78E010F5F1F4FBCE02C
:10772000EB2EB7E0FB2EF80141918F01C7016CE60B
:1077300059DE0894E11CF11CF2E1EF16F7E0FF06B8
:1077400091F789EB92E76FE772E78AD2AF80BB24AB
:10775000BA2CAA248885A80EB11C098510E0102F28
:1077600000278A85080F111DEB84FF24FE2CEE24D0
:107770008C85E80EF11C89EB92E760E772E770D226
:10778000B70180E090E044E09DD282E692E752D2D9
:10779000B80180E090E044E095D280E592E74AD2DB
:1077A000ACEFCA2EAFEFDA2ECA0CDB1CB60180E0BC
:1077B00090E044E087D20330110589F429E3E21612
:1077C000F10458F48091200190912101E816F90606
:1077D00020F001968E159F0510F400E010E085E082
:1077E000A81682E0B80608F0E1C00330110509F4DC
:1077F0003FC00430110540F40130110571F0023032
:10780000110509F0D5C00EC00430110509F4C2C03D
:107810000530110509F0CCC0C2C089EB92E763E4E2
:1078200072E7C1C0C9D289EB92E765E372E718D26B
:1078300082E090E06FEFF2D28091280190912901CF
:10784000CBDE89EB92E769E172E70AD26091280109
:107850007091290180E090E044E034D2109221013F
:1078600010922001109223011092220102E0B2C076
:10787000A3D289EB92E76AE272E7F2D1F092230198
:10788000E09222010894E108F108FE2CEE24FF0C9E
:10789000C7018C0D9D1DE0E781309E0738F089EB14
:1078A00092E76BE072E7DCD103E094C089EB92E7EA
:1078B00060EF71E7D5D1B70180E090E046E002D2F9
:1078C000F0E0CF16F2E0DF0610F404E005C002E0BD
:1078D00003C00894C11CD11CC6018F77907000971B
:1078E000C1F789EB92E765ED71E7BAD1B60180E0A7
:1078F00090E044E0E7D1E114F10431F4CE010D96BB
:1079000087D1882309F465C0DE011E9640E050E06F
:1079100061E073E015E031E1A32E2DC08C9190E081
:10792000382F2227FD013197808190E0282B392BB9
:10793000F701090160935700E89511244E5F5F4FEE
:10794000CA018F779070009789F4EE57F0407093DA
:107950005700E89507B600FCFDCF10935700E89557
:1079600007B600FCFDCFA0925700E895129682E082
:1079700090E0E80EF91E4C155D0580F2043051F5DB
:1079800089EB92E763EC71E76BD182E090E06EEEF9
:1079900045D220C089EB92E767EB71E704C089EB21
:1079A00092E761EB71E75CD100E014C000E010E009
:1079B00089EB92E761EA71E753D1B80180E090E08A
:1079C00044E080D1809128019091290105DE01E0F9
:1079D00001C005E0802FC45FDD4FDEBFCDBFDF916A
:1079E000CF911F910F91FF90EF90DF90CF90BF90BC
:1079F000AF900895CF9385E490E0EEDD87E190E0CD
:107A000005D28B3B91F489E190E000D2C82F88E148
:107A100090E0FCD12C2F30E0322F2227280F311D8F
:107A2000309329012093280106C089E797EB9093B2
:107A300029018093280189EB92E765E671E710D16F
:107A400089EB92E769E571E70BD1609128017091AC
:107A5000290180E090E044E035D1CF910895AF92C4
:107A6000BF92CF92DF92FF920F931F93CF93DF933A
:107A7000CDB7DEB7C556D040DEBFCDBF86E297E0BA
:107A800068E6F9DC009709F4B4C081E080932B012B
:107A90000EC082E097E06CE644E0A4DC8FEF97E84C
:107AA000A3E181509040A040E1F700C0000082E0D7
:107AB00097E068E6C6DC82FDECCF86E297E068E6F8
:107AC000DADCD0DDF82E84E297E060E0D4DCC12C73
:107AD00068E5D62EC80ED91E92E0F91659F19F1509
:107AE00020F0A1E0FA1639F413C0B3E0FB16C9F098
:107AF000E4E0FE1699F1CE01019662E271E74AE0F8
:107B000050E07BD12AE05E010894A11CB11C36C074
:107B1000CE01019667E371E74CE050E06ED12CE0B6
:107B2000F2CFCE0101966DE271E749E050E065D1F8
:107B300029E0E9CF80912201909123012091200139
:107B4000309121012817390720F490932101809367
:107B5000200189EB92E768E971E704C089EB92E7BD
:107B600069E871E77DD0198284E08A8380912201DF
:107B7000909123019B838C8324E0C5CF86010F5F06
:107B80001F4FD5014D915D01C60164E7A6962FAF49
:107B9000A69728DCA6962FADA697B0E600301B0767
:107BA00011F0680103C0C12C58E5D52E215031F7E2
:107BB000A6014050584584E297E06CE62CDC81E059
:107BC00097E06CE640E20EDC81E097E068E639DCA5
:107BD0008823D1F789EB92E76BE771E741D0E4E0C6
:107BE000FE1639F481E097E06CE640E1FBDB80E0D3
:107BF00001C081E0CB59DF4FDEBFCDBFDF91CF9118
:107C00001F910F91FF90DF90CF90BF90AF9008959C
:107C1000FC0180E090819C3049F49181943941F4D9
:107C20008C5F34968433B1F781E0089580E0089545
:107C300080E008950F931F93CF93DF93EC0110E042
:107C4000FE01E10FF11D0491002311F0802F6FD090
:107C50001F5F0023A9F7DF91CF911F910F91089526
:107C60000F931F93CF93DF938C01EB0183EC92E78B
:107C7000E1DFC801DFDFCE01DDDFDF91CF911F91B2
:107C80000F910895CF93DF93EC018881882311F43D
:107C900004C04DD089918823E1F7DF91CF910895F9
:107CA0000F931F93CF93DF938C01EB0183EC92E74B
:107CB000C1DFC801BFDFCE01E5DFDF91CF911F91AA
:107CC0000F910895CF92DF92EF92FF92CF936B01C5
:107CD0007C01C42F80EC92E7ADDF14C08C2F90E0C4
:107CE0000197880F991F880F991FA701960104C05B
:107CF00056954795379527958A95D2F7DA01C901A8
:107D00001DD0C150CC2351F7CF91FF90EF90DF9061
:107D1000CF90089582E08093C00088E18093C100F5
:107D200086E08093C20080E18093C4000895909122
:107D3000C00095FFFCCF8093C60008958F708A30F5
:107D400008F0895F805DF3CF8091C00087FFFCCF92
:107D50008091C00084FD01C0A8958091C60008955F
:107D60008091C00087FF04C027D081E080932A0162
:107D700081E00895809184009091850092FF05C074
:107D800025B130E2232725B901C02D982091240187
:107D9000309125018217930750F4209126013091EC
:107DA00027012F5F3F4F30932701209326019093A7
:107DB000250180932401089510928500109284007B
:107DC00010922701109226010895E0E0F0E08591DD
:107DD00094912FEF8F3F920751F081E0209126017F
:107DE000309127012530310518F480E0089580E0B6
:107DF0000895EE27FF2709940895FB01DC0102C0D6
:107E000005900D9241505040D8F70895F999FECF52
:107E100092BD81BDF89A992780B50895262FF999CA
:107E2000FECF1FBA92BD81BD20BD0FB6F894FA9A5D
:0C7E3000F99A0FBE01960895F894FFCF58
:107E3C0080C0A85401FFFFFF00DEADBEEFFEEDC019
:107E4C00A854800000000007D08055550F020A008E
:040000030000700089
:00000001FF
