:020000021000EC
:10F0000062C00000EEC00000ECC00000EAC00000DA
:10F01000E8C00000E6C00000E4C00000E2C000005C
:10F02000E0C00000DEC00000DCC00000DAC000006C
:10F03000D8C00000D6C00000D4C00000D2C000007C
:10F04000D0C00000CEC00000CCC00000CAC000008C
:10F05000C8C00000C6C00000C4C00000C2C000009C
:10F06000C0C00000BEC00000BCC00000BAC00000AC
:10F07000B8C00000B6C00000B4C00000B2C00000BC
:10F08000B0C00000AEC00000ACC00000130005001E
:10F0900000496E76616C696420696D616765206600
:10F0A000696C650008000500004572726F72000906
:10F0B0000005000346756C6C000A000500004F70E7
:10F0C000636F64653F0011241FBECFEFD0E4DEBF45
:10F0D000CDBF11E0A0E0B1E0ECE3FAEF01E00BBF3F
:10F0E00002C007900D92A032B107D9F71BBE11E004
:10F0F000A0E2B1E001C01D92AC32B107E1F701D04E
:10F100009BC414BE88E10FB6F894809360001092FF
:10F1100060000FBE8FEF95EAAEE081509040A040B6
:10F12000E1F700C00000112485E08093810080E0B9
:10F1300090E06CD4882321F080E090E060E06ED411
:10F1400081E090E063D4843021F081E090E064E0DD
:10F1500065D48EE390E05AD4813039F04D9B05C0E0
:10F1600082E090E053D48E3E31F08EE390E060E098
:10F1700055D4C1E002C03DD4C0E0CAD39DD0A5D0D3
:10F18000B0D210922A0110922B01D3E0CC24DD24BE
:10F19000760180912A01882319F4C6D28823D1F000
:10F1A00011D48823A9F0C13099F082E090E02ED4E8
:10F1B0008E3E81F080912B01813051F4F601E09276
:10F1C0005B00D0935700E8958CD2F3D310922B01BB
:10F1D000CFD3DFCF88E1809360008CE08093600024
:10F1E000FFCF0ECF20E52CBD2C98292F33272EBD25
:10F1F0000DB407FEFDCF8EBD0DB407FEFDCF80E838
:10F200008EBD0DB407FEFDCF81E08EBD0DB407FEAF
:10F21000FDCF4EBD0DB407FEFDCF2C9A1CBC08954A
:10F22000EF92FF921F93CF93DF93EC01162F7A0199
:10F23000452F5527D7DFCE010196612F4E2DD2DF06
:10F24000DF91CF911F91FF90EF90089520E52CBDA5
:10F250002C98292F33272EBD0DB407FEFDCF8EBD70
:10F260000DB407FEFDCF1EBC0DB407FEFDCF81E03F
:10F270008EBD0DB407FEFDCF1EBC0DB407FEFDCF45
:10F280002C9A8EB51CBC08950F931F93CF93DF93D8
:10F29000EC01162FDBDF082FCE010196612FD6DFA0
:10F2A000202F30E0322F222790E0822B932BDF910A
:10F2B000CF911F910F91089580EF85B980EB84B9AC
:10F2C000479A3F9A81E08DBD08950F931F93CF9386
:10F2D000DF9383E090E09AD3853591F484E090E069
:10F2E00095D38A3A69F401E011E0C5E0D0E0CE019F
:10F2F0008DD3F80181938F012196C731D105B9F7DC
:10F3000000E011E0C0E0D0E0F80141918F01CE01B2
:10F3100060E068DF2196CA31D105B1F7CFE1D0E4D2
:10F32000CE0160E042E05EDFCE01019760E042E0A6
:10F3300059DFC050DF4FF8E4CF31DF0789F7DF91A5
:10F34000CF911F910F910895CF93DF93EC0181E04E
:10F3500093E46CE640E146DF81E093E468E676DF23
:10F360008823D1F782E093E46CE64FEF3BDF80E047
:10F3700093E46CE642E036DF84E093E46CE6AE01B1
:10F380004FDF81E093E46CE641E02CDF81E093E421
:10F3900068E65CDF8823D1F783E093E468E656DF14
:10F3A000823229F081E093E46CE640E11BDF83E0E8
:10F3B00093E468E64BDF8232A9F6DF91CF9108959E
:10F3C0002F923F924F925F926F927F928F929F9275
:10F3D000AF92BF92CF92DF92EF92FF920F931F9363
:10F3E000CF93DF93CDB7DEB7CC50D240DEBFCDBFD9
:10F3F00088E293E468E648DFAC01009711F440E04E
:10F4000058EDFDE0CF2EF2E0DF2ECC0EDD1E7E01AA
:10F410000894E11CF11C10C08A010F5F1F4FCA0144
:10F4200060E014DFD7018D937D01B0EE00301B0743
:10F4300011F400E018EDA801EC14FD0469F788E26E
:10F4400093E46CE6EDDE81E093E46CE640E4CADE32
:10F4500081E093E468E6FADE8823D1F78E010F5F3E
:10F460001F4FECE0EE2EE3E4FE2EF80141918F01F8
:10F47000C7016CE6B7DE0894E11CF11CF2E1EF165F
:10F48000F3E4FF0691F7EF80FF24FE2CEE2488853D
:10F49000E80EF11C898590E0982F88272A85820F35
:10F4A000911D0B8510E0102F00272C85020F111DD8
:10F4B0008330910589F4093F110560F42091200102
:10F4C000309121010217130728F02F5F3F4F2017BB
:10F4D000310710F480E090E025E0E21622E0F20629
:10F4E00008F0DDC08330910529F18430910548F49E
:10F4F0008130910509F4DAC08230910509F0CFC05E
:10F5000005C08630910508F0CAC0D0C052D282E052
:10F5100090E06FEF83D2809128019091290114DF50
:10F5200010922101109220011092230110922201C9
:10F5300002E0BFC03ED29CEF892E9FEF992E8E0C29
:10F540009F1C109323010093220101501040680179
:10F55000EE24FF2429E0CC0CDD1CEE1CFF1C2A95B8
:10F56000D1F78FEF9FEFA0E0B0E0C822D922EA22C6
:10F57000FB22000F012F001F110B119520E030E03E
:10F58000980111270027C02AD12AE22AF32AC401B0
:10F59000A0E0B0E08C0D9D1DAE1DBF1D8130E0EFE1
:10F5A0009E07E1E0AE07E0E0BE0708F081C0F0E0B2
:10F5B0008F16F2E09F0610F404E005C002E003C0DD
:10F5C0000894811C911C8820D9F7C114D104E1044E
:10F5D000F10419F4CE010D9689D1FEE0AF2EB12CC5
:10F5E000AC0EBD1E20E030E011E0412CAFEF5A2EF2
:10F5F000AFEF6A2EAFEF7A2E4C0C5D1C6E1C7F1C99
:10F60000B3E03B2E85E0282E3FC0A90160E070E00A
:10F610004C0D5D1D6E1D7F1DD5018C9190E0B82FA6
:10F62000AA27F5013197808190E0A82BB92B0D0115
:10F63000FA0160935B0010935700E89511242E5F48
:10F640003F4F2223E9F4C901A0E0B0E0840D951DED
:10F65000A61DB71DFC01A0935B0030925700E895F2
:10F6600007B600FCFDCFFC01A0935B002092570081
:10F67000E89507B600FCFDCFB1E1B0935700E895DF
:10F68000E2E0F0E0AE0EBF1E2815390508F4BDCF4C
:10F69000043079F482E090E06EEEC0D10AC080912F
:10F6A00028019091290150DE01E003C000E001C073
:10F6B00003E0802FC45FDD4FDEBFCDBFDF91CF9170
:10F6C0001F910F91FF90EF90DF90CF90BF90AF9080
:10F6D0009F908F907F906F905F904F903F902F9072
:10F6E0000895CF9385E490E02FDE87E190E08ED1FE
:10F6F0008B3B91F489E190E089D1C82F88E190E0BB
:10F7000085D12C2F30E0322F2227280F311D309346
:10F7100029012093280106C089E797EB90932901DE
:10F7200080932801CF910895AF92BF92CF92DF923C
:10F73000FF920F931F93CF93DF93CDB7DEB7C556DC
:10F74000D040DEBFCDBF86E293E468E69DDD009742
:10F7500009F4BDC081E080932B010EC082E093E4E8
:10F760006CE644E03FDD8FEF97E8A3E181509040E5
:10F77000A040E1F700C0000082E093E468E666DDA7
:10F7800082FDECCF1DDEF82E4C9B02C05C9804C0BD
:10F790008BB190E189278BB984E293E460E074DD5A
:10F7A000A12C18E9B12EA80EB91E92E0F91609F4A1
:10F7B0003EC09F1520F0A1E0FA1641F41AC0B3E054
:10F7C000FB1631F1E4E0FE1609F440C044EA50EFC4
:10F7D00060E070E0405050406F4F7F4FCE01019687
:10F7E0002AE030E00AD12AE06E010894C11CD11C45
:10F7F00038C049EB50EF60E070E0405050406F4F30
:10F800007F4FCE0101962CE030E0F7D02CE0ECCF1A
:10F810004FEA50EF60E070E0405050406F4F7F4F34
:10F82000CE01019629E030E0E8D029E0DDCF8091DB
:10F83000220190912301209120013091210128176C
:10F84000390720F49093210180932001198284E0EC
:10F850008A8380912201909123019B838C8324E0F1
:10F86000C3CF85010F5F1F4FD6014D916D01C501BB
:10F8700064E7A6962FAFA697B5DCA6962FADA69700
:10F88000B0EA00301B0711F0580103C0A12CB8E901
:10F89000BB2E215031F7A5014050584984E293E432
:10F8A0006CE6BEDC81E093E46CE640E29BDC81E048
:10F8B00093E468E6CBDC8823D1F7E4E0FE1639F464
:10F8C00081E093E46CE640E18DDC80E001C081E002
:10F8D000CB59DF4FDEBFCDBFDF91CF911F910F918D
:10F8E000FF90DF90CF90BF90AF900895FC0180E033
:10F8F00090819C3049F49181943941F48C5F349625
:10F900008433B1F781E0089580E0089580E00895A0
:10F9100082E08093C00088E18093C10086E08093FC
:10F92000C20080E18093C40008959091C00095FFCB
:10F93000FCCF8093C60008958F708A3008F0895FED
:10F94000805DF3CF8091C00087FFFCCF8091C00025
:10F9500084FD01C0A8958091C60008958091C000E3
:10F9600087FF04C026D081E080932A0181E00895BA
:10F97000809184009091850092FF04C02BB12058A3
:10F980002BB901C05F982091240130912501821785
:10F99000930750F420912601309127012F5F3F4FAC
:10F9A0003093270120932601909325018093240111
:10F9B00008951092850010928400109227011092F1
:10F9C0002601089580E090E0DC01ABBFFC01879147
:10F9D00096912FEF8F3F920751F081E02091260101
:10F9E000309127012530310518F480E0089580E03A
:10F9F0000895EE27FF2709940895FA01DC0102C05B
:10FA000005900D9221503040D8F70895F999FECF16
:10FA100092BD81BDF89A992780B50895262FF9994E
:10FA2000FECF1FBA92BD81BD20BD0FB6F894FA9AE1
:0CFA3000F99A0FBE01960895F894FFCFDC
:10FA3C0080C0A85401FFFFFF00DEADBEEFFEEDC09D
:10FA4C00A854800000000007D00800000F020A0034
:040000031000F000F9
:00000001FF
