:020000021000EC
:10F0000062C00000DFC00000DDC00000DBC0000007
:10F01000D9C00000D7C00000D5C00000D3C0000098
:10F02000D1C00000CFC00000CDC00000CBC00000A8
:10F03000C9C00000C7C00000C5C00000C3C00000B8
:10F04000C1C00000BFC00000BDC00000BBC00000C8
:10F05000B9C00000B7C00000B5C00000B3C00000D8
:10F06000B1C00000AFC00000ADC00000ABC00000E8
:10F07000A9C00000A7C00000A5C00000A3C00000F8
:10F08000A1C000009FC000009DC00000130005004B
:10F0900000496E76616C696420696D616765206600
:10F0A000696C650008000500004572726F72000906
:10F0B0000005000346756C6C000A000500004F70E7
:10F0C000636F64653F0011241FBECFEFD0E4DEBF45
:10F0D000CDBF11E0A0E0B1E0EEE1FCEF01E00BBF3D
:10F0E00002C007900D92A032B107D9F71BBE11E004
:10F0F000A0E2B1E001C01D92AF32B107E1F701D04B
:10F100008CC584B714BE98E10FB6F8949093600054
:10F11000109260000FBE81FD01C03BD48FEF95EAD5
:10F12000AEE081509040A040E1F700C00000112403
:10F1300085E08093810080E090E059D5882321F01C
:10F1400080E090E060E05BD581E090E050D58430D5
:10F1500021F081E090E064E052D5A9D395D09DD014
:10F1600097D210922D0110922E01C3E0CC24DD2401
:10F17000760180912D01882319F4ADD28823F9F00E
:10F1800080912E01882319F4B8D38823C1F0EAD3E3
:10F19000882399F082E090E02AD58E3E81F080911C
:10F1A0002E01813051F4F601E0925B00C0935700CC
:10F1B000E8956ED2CED310922E01AAD3DACFE9D33E
:10F1C00080E090E01DCF20E52CBD2C9820EF2EBDD7
:10F1D0000DB407FEFDCF292F33272EBD0DB407FE3A
:10F1E000FDCF8EBD0DB407FEFDCF4EBD0DB407FEA5
:10F1F000FDCF2C9A1CBC0895EF92FF921F93CF93E2
:10F20000DF93EC01162F7A01452F5527DCDFCE0165
:10F210000196612F4E2DD7DFDF91CF911F91FF9087
:10F22000EF90089520E52CBD2C982FE02EBD0DB455
:10F2300007FEFDCF292F33272EBD0DB407FEFDCFCE
:10F240008EBD0DB407FEFDCF1EBC0DB407FEFDCF75
:10F250002C9A8EB51CBC08950F931F93CF93DF9308
:10F26000EC01162FDFDF082FCE010196612FDADFC8
:10F27000202F30E0322F222790E0822B932BDF913A
:10F28000CF911F910F91089580EF85B980EB84B9DC
:10F29000479A3F9A81E08DBD08950F931F93CF93B6
:10F2A000DF9383E090E0A3D4853591F484E090E08F
:10F2B0009ED48A3A69F401E011E0C5E0D0E0CE01C5
:10F2C00096D4F80181938F012196C731D105B9F702
:10F2D00000E011E0C0E0D0E0F80141918F01CE01E3
:10F2E00060E071DF2196CC31D105B1F7DF91CF918C
:10F2F0001F910F910895CF93DF93EC0181E097E088
:10F300006CE640E160DF81E097E068E68BDF882310
:10F31000D1F782E097E06CE64FEF55DF80E097E0B1
:10F320006CE642E050DF84E097E06CE6AE0164DF1B
:10F3300081E097E06CE641E046DF81E097E068E637
:10F3400071DF8823D1F783E097E068E66BDF8232D4
:10F3500029F081E097E06CE640E135DF83E097E05B
:10F3600068E660DF8232A9F6DF91CF9108952F928F
:10F370003F924F925F926F927F928F929F92AF9245
:10F38000BF92CF92DF92EF92FF920F931F93CF9392
:10F39000DF93CDB7DEB7CC50D240DEBFCDBF88E221
:10F3A00097E068E659DFAC01009711F440E058E7B8
:10F3B000FDE0CF2EF2E0DF2ECC0EDD1E7E010894A4
:10F3C000E11CF11C10C08A010F5F1F4FCA0160E0F1
:10F3D00029DFD7018D937D01B0E800301B0711F4C0
:10F3E00000E018E7A801EC14FD0469F788E297E053
:10F3F0006CE602DF81E097E06CE640E4E4DE81E069
:10F4000097E068E60FDF8823D1F78E010F5F1F4F6B
:10F41000ECE0EE2EE7E0FE2EF80141918F01C701EE
:10F420006CE6D1DE0894E11CF11CF2E1EF16F7E086
:10F43000FF0691F7EF80FF24FE2CEE248885E80E6E
:10F44000F11C898590E0982F88272A85820F911DCD
:10F450000B8510E0102F00272C85020F111D833023
:10F46000910589F4093F110560F420912001309144
:10F4700021010217130728F02F5F3F4F2017310794
:10F4800010F480E090E025E0E21622E0F20608F0B9
:10F49000DDC08330910529F18430910548F4813035
:10F4A000910509F4DAC08230910509F0CFC005C09A
:10F4B0008630910508F0CAC0D0C04BD282E090E0FF
:10F4C0006FEF9DD380912B0190912C0114DF10924E
:10F4D000210110922001109223011092220102E0DA
:10F4E000BFC037D29CEF892E9FEF992E8E0C9F1CA8
:10F4F0001093230100932201015010406801EE2473
:10F50000FF2429E0CC0CDD1CEE1CFF1C2A95D1F752
:10F510008FEF9FEFA0E0B0E0C822D922EA22FB22C1
:10F52000000F012F001F110B119520E030E0980112
:10F5300011270027C02AD12AE22AF32AC401A0E019
:10F54000B0E08C0D9D1DAE1DBF1D8130E0EF9E070C
:10F55000E1E0AE07E0E0BE0708F081C0F0E08F1602
:10F56000F2E09F0610F404E005C002E003C0089436
:10F57000811C911C8820D9F7C114D104E104F10445
:10F5800019F4CE010D9681D1FEE0AF2EB12CAC0E58
:10F59000BD1E20E030E011E0412CAFEF5A2EAFEF5E
:10F5A0006A2EAFEF7A2E4C0C5D1C6E1C7F1CB3E0F4
:10F5B0003B2E85E0282E3FC0A90160E070E04C0D95
:10F5C0005D1D6E1D7F1DD5018C9190E0B82FAA277F
:10F5D000F5013197808190E0A82BB92B0D01FA013C
:10F5E00060935B0010935700E89511242E5F3F4F06
:10F5F0002223E9F4C901A0E0B0E0840D951DA61D09
:10F60000B71DFC01A0935B0030925700E89507B648
:10F6100000FCFDCFFC01A0935B0020925700E89511
:10F6200007B600FCFDCFB1E1B0935700E895E2E0EA
:10F63000F0E0AE0EBF1E2815390508F4BDCF04302A
:10F6400079F482E090E06EEEDAD20AC080912B016C
:10F6500090912C0150DE01E003C000E001C003E006
:10F66000802FC45FDD4FDEBFCDBFDF91CF911F91F3
:10F670000F91FF90EF90DF90CF90BF90AF909F9051
:10F680008F907F906F905F904F903F902F90089554
:10F69000CF9385E490E02FDE87E190E0A8D28B3B0A
:10F6A00091F489E190E0A3D2C82F88E190E09FD245
:10F6B0002C2F30E0322F2227280F311D30932C01C0
:10F6C00020932B0106C089E797EB90932C01809340
:10F6D0002B01CF910895AF92BF92CF92DF92FF920C
:10F6E0000F931F93CF93DF93CDB7DEB7C556D040AE
:10F6F000DEBFCDBF86E297E068E6AEDD009709F495
:10F70000B5C081E080932E010EC082E097E06CE6E8
:10F7100044E059DD8FEF97E8A3E181509040A0408D
:10F72000E1F700C0000082E097E068E67BDD82FD43
:10F73000ECCF1DDEF82E84E297E060E08DDDA12C99
:10F7400018E5B12EA80EB91E92E0F91609F43EC0D4
:10F750009F1520F0A1E0FA1641F41AC0B3E0FB16A1
:10F7600031F1E4E0FE1609F440C044EA50EF60E0F5
:10F7700070E0405050406F4F7F4FCE0101962AE01D
:10F7800030E02CD22AE06E010894C11CD11C38C094
:10F7900049EB50EF60E070E0405050406F4F7F4FBA
:10F7A000CE0101962CE030E019D22CE0ECCF4FEAEC
:10F7B00050EF60E070E0405050406F4F7F4FCE01FF
:10F7C000019629E030E00AD229E0DDCF80912201C4
:10F7D00090912301209120013091210128173907B0
:10F7E00020F49093210180932001198284E08A8380
:10F7F00080912201909123019B838C8324E0C3CFCD
:10F8000085010F5F1F4FD6014D916D01C50164E762
:10F81000A6962FAFA697D7DCA6962FADA697B0E6F3
:10F8200000301B0711F0580103C0A12CB8E5BB2E16
:10F83000215031F7A5014050584584E297E06CE62D
:10F84000DBDC81E097E06CE640E2BDDC81E097E044
:10F8500068E6E8DC8823D1F7E4E0FE1639F481E0BD
:10F8600097E06CE640E1AFDC80E001C081E0CB597D
:10F87000DF4FDEBFCDBFDF91CF911F910F91FF9082
:10F88000DF90CF90BF90AF900895FC0180E0908111
:10F890009C3049F49181943941F48C5F34968433DF
:10F8A000B1F781E0089580E0089580E0089582E056
:10F8B0008093C00088E18093C10086E08093C200FD
:10F8C00080E18093C40008959091C00095FFFCCF23
:10F8D0008093C60008958F708A3008F0895F805D3C
:10F8E000F3CF8091C00087FFFCCF8091C00084FDE2
:10F8F00001C0A8958091C60008958091C00087FF3F
:10F9000005C027D081E080932D015BC081E0089580
:10F91000809184009091850092FF04C02BB1205803
:10F920002BB901C05F9820912401309125018217E5
:10F93000930750F420912601309127012F5F3F4F0C
:10F940003093270120932601909325018093240171
:10F950000895109285001092840010922701109251
:10F960002601089580E090E0DC01ABBFFC018791A7
:10F9700096912FEF8F3F920751F081E02091260161
:10F98000309127012530310518F480E0089580E09A
:10F990000895EE27FF2709940895A3DF803239F0F8
:10F9A00088E18093600088E080936000FFCF84E16D
:10F9B0008BCFCF93C82F95DFC150E9F7EEDFCF9102
:10F9C0000895AF92BF92CF92DF92EF92FF920F9382
:10F9D0001F93CF93DF93CDB7DEB7C150D140DEBFC9
:10F9E000CDBF7FDF8134A9F47CDFCF5FDE4F88831A
:10F9F000C150D140D2DFCF5FDE4F8881C150D140AE
:10FA0000823811F484E003C0813839F183E05CDF8F
:10FA1000D3C0823411F484E103C0853419F484E046
:10FA2000C8DFCAC08535A9F45CDF082F10E059DFB4
:10FA300090E0982F8827802B912B292F221F222797
:10FA4000221F2BBF880F991F9093290180932801B3
:10FA5000B2C0863521F484E0ACDF80E0D8CF8436B4
:10FA600009F076C03EDF3DDF80932A013ADF8091C6
:10FA700028019091290120EE8030920748F4A0E0FF
:10FA8000B0E023E0FC01A0935B0020935700E895D1
:10FA90008E010F5F1F4F25DFF80181938F01809149
:10FAA0002A01815080932A018823A9F78091280197
:10FAB00090912901F0EE80309F0748F0A0E0B0E07F
:10FAC00023E0FC01A0935B0020935700E89565DFDD
:10FAD00007B600FCFDCFA0912801B09129018981D2
:10FAE0009D0160E871E0AE014F5F5F4F4A1B5B0B09
:10FAF000A82EBB246901EE24FF248A01020F131FE4
:10FB0000F801818190E0982F88278A299B290C0190
:10FB1000F601E0925B0070935700E8951124615064
:10FB200029F0F80182812E5F3F4FE2CFCD01A0E0A6
:10FB3000B0E025E0FC01A0935B0020935700E8951E
:10FB400007B600FCFDCF81E180935700E89534C0F3
:10FB50008437E9F4C6DEC5DE80932A01C2DE1DDFEC
:10FB6000E0912801F09129018691AEDE8091280173
:10FB70009091290101969093290180932801809109
:10FB80002A01815080932A01882351F715C08537B7
:10FB900039F403DF8EE198DE87E996DE85E037CF22
:10FBA000813549F4FADE82E090E06EEE28D080E103
:10FBB0008BDE80E004C0F1DE80E186DE81E0CF5F95
:10FBC000DE4FDEBFCDBFDF91CF911F910F91FF9030
:10FBD000EF90DF90CF90BF90AF900895FA01DC01D5
:10FBE00002C005900D9221503040D8F70895F99940
:10FBF000FECF92BD81BDF89A992780B50895262F32
:10FC0000F999FECF1FBA92BD81BD20BD0FB6F89401
:0EFC1000FA9AF99A0FBE01960895F894FFCF64
:10FC1E0080C0A85401FFFFFF00DEADBEEFFEEDC0B9
:10FC2E00A854800000000007D08055550F020A002E
:040000031000F000F9
:00000001FF
