:020000021000EC
:10F0000086C0000048C1000046C1000044C10000A5
:10F0100042C1000040C100003EC100003CC10000F0
:10F020003AC1000038C1000036C1000034C1000000
:10F0300032C1000030C100002EC100002CC1000010
:10F040002AC1000028C1000026C1000024C1000020
:10F0500022C1000020C100001EC100001CC1000030
:10F060001AC1000018C1000016C1000014C1000040
:10F0700012C1000010C100000EC100000CC1000050
:10F080000AC1000008C1000006C10000537461728B
:10F09000742075736572206170700053454D426F26
:10F0A0006F7420666F722041726475696E6F204DB7
:10F0B00065676131323834502C2056657273696F40
:10F0C0006E20302E36004D61696E3A200013000527
:10F0D0000000496E76616C696420696D6167652026
:10F0E00066696C650008000500004572726F720069
:10F0F000090005000346756C6C000A000500004F0E
:10F1000070636F64653F003078000D0A00001124C1
:10F110001FBECFEFD0E4DEBFCDBF11E0A0E0B1E075
:10F12000E6EBFBEF01E00BBF02C007900D92A032AF
:10F13000B107D9F71BBE11E0A0E2B1E001C01D92FA
:10F14000AC32B107E1F701D034C584B714BE98E101
:10F150000FB6F89490936000109260000FBE2FEFEE
:10F1600035EA4EE0215030404040E1F700C0000059
:10F17000579A549A83FD2AC08BB180588BB988E086
:10F1800087B988B92FEF31EE44E02150304040403C
:10F19000E1F700C0000018B82FEF39E648E1215030
:10F1A00030404040E1F700C0000088B92FEF31EE59
:10F1B00044E0215030404040E1F700C0000090930F
:10F1C00060008CE0809360005F98FFCF112485E0A1
:10F1D0008093810080E090E0D6D4882321F080E005
:10F1E00090E060E0D8D481E090E0CDD4843021F08C
:10F1F00081E090E064E0CFD44D9B13C08EE390E0BB
:10F20000C2D4813029F082E090E0BDD48E3E31F04E
:10F210008EE390E060E0BFD4C1E004C0A7D4C0E0BA
:10F2200001C0C1E030D486EC90EF6BE970EFD1D330
:10F2300094D09CD096D210922A0110922B01D3E048
:10F24000CC24DD24760180912A01882319F4ACD2E4
:10F250008823D1F074D48823A9F0C13099F082E0DA
:10F2600090E091D48E3E81F080912B01813051F459
:10F27000F601E0925B00D0935700E89572D256D425
:10F2800010922B0130D4DFCF88E1809360008CE0B6
:10F2900080936000FFCFB4CE20E52CBD2C9820EFEA
:10F2A0002EBD0DB407FEFDCF292F33272EBD0DB483
:10F2B00007FEFDCF8EBD0DB407FEFDCF4EBD0DB4D4
:10F2C00007FEFDCF2C9A1CBC0895EF92FF921F936E
:10F2D000CF93DF93EC01162F7A01452F5527DCDF02
:10F2E000CE010196612F4E2DD7DFDF91CF911F9177
:10F2F000FF90EF90089520E52CBD2C982FE02EBDB7
:10F300000DB407FEFDCF292F33272EBD0DB407FE08
:10F31000FDCF8EBD0DB407FEFDCF1EBC0DB407FEA4
:10F32000FDCF2C9A8EB51CBC08950F931F93CF93DD
:10F33000DF93EC01162FDFDF082FCE010196612F3E
:10F34000DADF202F30E0322F222790E0822B932B20
:10F35000DF91CF911F910F91089580EF85B980EBD8
:10F3600084B9479A3F9A81E08DBD08950F931F930A
:10F37000CF93DF9383E090E006D4853591F484E069
:10F3800090E001D48A3A69F401E011E0C5E0D0E0F0
:10F39000CE01F9D3F80181938F012196C731D105B0
:10F3A000B9F700E011E0C0E0D0E0F80141918F0131
:10F3B000CE0160E071DF2196CC31D105B1F7DF914C
:10F3C000CF911F910F910895CF93DF93EC0181E0CE
:10F3D00097E06CE640E160DF81E097E068E68BDF74
:10F3E0008823D1F782E097E06CE64FEF55DF80E0AD
:10F3F00097E06CE642E050DF84E097E06CE6AE0117
:10F4000064DF81E097E06CE641E046DF81E097E071
:10F4100068E671DF8823D1F783E097E068E66BDF69
:10F42000823229F081E097E06CE640E135DF83E04D
:10F4300097E068E660DF8232A9F6DF91CF91089508
:10F440002F923F924F925F926F927F928F929F92F4
:10F45000AF92BF92CF92DF92EF92FF920F931F93E2
:10F46000CF93DF93CDB7DEB7CC50D240DEBFCDBF58
:10F4700088E297E068E659DFAC01009711F440E0BC
:10F4800058E7FDE0CF2EF2E0DF2ECC0EDD1E7E0130
:10F490000894E11CF11C10C08A010F5F1F4FCA01C4
:10F4A00060E029DFD7018D937D01B0E800301B07B4
:10F4B00011F400E018E7A801EC14FD0469F788E2F4
:10F4C00097E06CE602DF81E097E06CE640E4E4DE82
:10F4D00081E097E068E60FDF8823D1F78E010F5FA8
:10F4E0001F4FECE0EE2EE7E0FE2EF80141918F0178
:10F4F000C7016CE6D1DE0894E11CF11CF2E1EF16C5
:10F50000F7E0FF0691F7EF80FF24FE2CEE248885BC
:10F51000E80EF11C898590E0982F88272A85820FB4
:10F52000911D0B8510E0102F00272C85020F111D57
:10F530008330910589F4093F110560F42091200181
:10F54000309121010217130728F02F5F3F4F20173A
:10F55000310710F480E090E025E0E21622E0F206A8
:10F5600008F0DDC08330910529F18430910548F41D
:10F570008130910509F4DAC08230910509F0CFC0DD
:10F5800005C08630910508F0CAC0D0C0CFD282E055
:10F5900090E06FEF00D3809128019091290114DF52
:10F5A0001092210110922001109223011092220149
:10F5B00002E0BFC0BBD29CEF892E9FEF992E8E0C2C
:10F5C0009F1C1093230100932201015010406801F9
:10F5D000EE24FF2429E0CC0CDD1CEE1CFF1C2A9538
:10F5E000D1F78FEF9FEFA0E0B0E0C822D922EA2246
:10F5F000FB22000F012F001F110B119520E030E0BE
:10F60000980111270027C02AD12AE22AF32AC4012F
:10F61000A0E0B0E08C0D9D1DAE1DBF1D8130E0EF60
:10F620009E07E1E0AE07E0E0BE0708F081C0F0E031
:10F630008F16F2E09F0610F404E005C002E003C05C
:10F640000894811C911C8820D9F7C114D104E104CD
:10F65000F10419F4CE010D9681D1FEE0AF2EB12C4C
:10F66000AC0EBD1E20E030E011E0412CAFEF5A2E71
:10F67000AFEF6A2EAFEF7A2E4C0C5D1C6E1C7F1C18
:10F68000B3E03B2E85E0282E3FC0A90160E070E08A
:10F690004C0D5D1D6E1D7F1DD5018C9190E0B82F26
:10F6A000AA27F5013197808190E0A82BB92B0D0195
:10F6B000FA0160935B0010935700E89511242E5FC8
:10F6C0003F4F2223E9F4C901A0E0B0E0840D951D6D
:10F6D000A61DB71DFC01A0935B0030925700E89572
:10F6E00007B600FCFDCFFC01A0935B002092570001
:10F6F000E89507B600FCFDCFB1E1B0935700E8955F
:10F70000E2E0F0E0AE0EBF1E2815390508F4BDCFCB
:10F71000043079F482E090E06EEE3DD20AC0809130
:10F7200028019091290150DE01E003C000E001C0F2
:10F7300003E0802FC45FDD4FDEBFCDBFDF91CF91EF
:10F740001F910F91FF90EF90DF90CF90BF90AF90FF
:10F750009F908F907F906F905F904F903F902F90F1
:10F760000895CF9385E490E02FDE87E190E00BD2FF
:10F770008B3B91F489E190E006D2C82F88E190E0BC
:10F7800002D22C2F30E0322F2227280F311D309348
:10F7900029012093280106C089E797EB909329015E
:10F7A00080932801CF910895AF92BF92CF92DF92BC
:10F7B000FF920F931F93CF93DF93CDB7DEB7C5565C
:10F7C000D040DEBFCDBF86E297E068E6AEDD0097B1
:10F7D00009F4B5C081E080932B010EC082E097E070
:10F7E0006CE644E059DD8FEF97E8A3E1815090404B
:10F7F000A040E1F700C0000082E097E068E67BDD12
:10F8000082FDECCF1DDEF82E84E297E060E08DDD16
:10F81000A12C18E5B12EA80EB91E92E0F91609F434
:10F820003EC09F1520F0A1E0FA1641F41AC0B3E0E3
:10F83000FB1631F1E4E0FE1609F440C045EE50EF4E
:10F8400060E070E0405050406F4F7F4FCE01019616
:10F850002AE030E08FD12AE06E010894C11CD11C4F
:10F8600038C04AEF50EF60E070E0405050406F4FBA
:10F870007F4FCE0101962CE030E07CD12CE0ECCF24
:10F8800040EF50EF60E070E0405050406F4F7F4FCE
:10F89000CE01019629E030E06DD129E0DDCF8091E5
:10F8A00022019091230120912001309121012817FC
:10F8B000390720F49093210180932001198284E07C
:10F8C0008A8380912201909123019B838C8324E081
:10F8D000C3CF85010F5F1F4FD6014D916D01C5014B
:10F8E00064E7A6962FAFA697D7DCA6962FADA6976E
:10F8F000B0E600301B0711F0580103C0A12CB8E599
:10F90000BB2E215031F7A5014050584584E297E0C5
:10F910006CE6DBDC81E097E06CE640E2BDDC81E098
:10F9200097E068E6E8DC8823D1F7E4E0FE1639F4D6
:10F9300081E097E06CE640E1AFDC80E001C081E06F
:10F94000CB59DF4FDEBFCDBFDF91CF911F910F911C
:10F95000FF90DF90CF90BF90AF900895FC0180E0C2
:10F9600090819C3049F49181943941F48C5F3496B4
:10F970008433B1F781E0089580E0089580E0089530
:10F98000CF92DF92EF92FF92CF93DF93C0E06C01B2
:10F99000EE24FF2480E090E0A1E0B0E0C80ED91E84
:10F9A000EA1EFB1ED701C6018C0F911DA11DB11DC2
:10F9B000ABBFFC01D791DD2311F08D2F71D0CF5F4C
:10F9C000DD2381F7DF91CF91FF90EF90DF90CF9013
:10F9D00008950F931F93CF93DF938C01EB018AE07F
:10F9E00091EFCEDFC801CCDFCE01CADFDF91CF912E
:10F9F0001F910F910895CF93DF93EC0188818823A5
:10FA000011F404C04DD089918823E1F7DF91CF91A3
:10FA100008950F931F93CF93DF938C01EB018AE03E
:10FA200091EFAEDFC801ACDFCE01E5DFDF91CF9112
:10FA30001F910F910895CF92DF92EF92FF92CF9393
:10FA40006B017C01C42F87E091EF9ADF14C08C2FEB
:10FA500090E00197880F991F880F991FA7019601C1
:10FA600004C056954795379527958A95D2F7DA01C0
:10FA7000C9011DD0C150CC2351F7CF91FF90EF9019
:10FA8000DF90CF90089582E08093C00088E180935A
:10FA9000C10086E08093C20080E18093C400089595
:10FAA0009091C00095FFFCCF8093C60008958F70A1
:10FAB0008A3008F0895F805DF3CF8091C00087FFB6
:10FAC000FCCF8091C00084FD01C0A8958091C60044
:10FAD00008958091C00087FF04C028D081E0809302
:10FAE0002A0181E00895809184009091850092FF21
:10FAF00007C04F9B02C05F9803C02BB120582BB9A1
:10FB000020912401309125018217930750F4209110
:10FB10002601309127012F5F3F4F3093270120931B
:10FB20002601909325018093240108951092850069
:10FB3000109284001092270110922601089580E00F
:10FB400090E0DC01ABBFFC01879196912FEF8F3FD6
:10FB5000920751F081E02091260130912701253054
:10FB6000310518F480E0089580E00895EE27FF271E
:10FB700009940895FA01DC0102C005900D9221500C
:10FB80003040D8F70895F999FECF92BD81BDF89A1B
:10FB9000992780B50895262FF999FECF1FBA92BDF7
:10FBA00081BD20BD0FB6F894FA9AF99A0FBE01965E
:06FBB0000895F894FFCF58
:10FBB60080C0A85401FFFFFF00DEADBEEFFEEDC022
:10FBC600A854800000000007D08055550F020A0097
:040000031000F000F9
:00000001FF
