:020000023000CC
:10E00000C6C1000059C2000057C2000055C200003E
:10E0100053C2000051C200004FC200004DC20000B8
:10E020004BC2000049C2000047C2000045C20000C8
:10E0300043C2000041C200003FC200003DC20000D8
:10E040003BC2000039C2000037C2000035C20000E8
:10E0500033C2000031C200002FC200002DC20000F8
:10E060002BC2000029C2000027C2000025C2000008
:10E0700023C2000021C200001FC200001DC2000018
:10E080001BC2000019C2000017C2000015C2000028
:10E0900013C2000011C200000FC200000DC2000038
:10E0A0000BC2000009C2000007C2000005C2000048
:10E0B00003C2000001C20000FFC10000FDC100005A
:10E0C000FBC10000F9C10000F7C10000F5C100006C
:10E0D000F3C10000F1C10000EFC10000EDC100007C
:10E0E000EBC1000053746172742075736572206116
:10E0F00070700053454D426F6F7420666F722041FF
:10E10000726475696E6F204D656761323536302CEB
:10E110002056657273696F6E20302E36004D61692E
:10E120006E3A20004E6574776F726B20696E697469
:10E1300020646F6E650009202020204D41433A2065
:10E140000009476174657761793A200009205375A9
:10E15000626E65743A200009416464726573733AB3
:10E1600020004275696C742D696E20736574746942
:10E170006E677300454550524F4D20736574746946
:10E180006E677300204E65743A200013000500008E
:10E19000496E76616C696420696D616765206669A6
:10E1A0006C650008000500004572726F720009007E
:10E1B00005000346756C6C000A000500004F706393
:10E1C0006F64653F00496E697420736F636B65749B
:10E1D00020746F20706F7274200009446174615064
:10E1E0006F72743A200054465450207365727665FD
:10E1F0007220696E697420646F6E65005265737079
:10E200006F6E73652073656E740053656E7420467F
:10E21000696E616C2041434B0053656E742041432D
:10E220004B00496E76616C6964206F70636F646542
:10E2300020004572726F720041636B6E6F776C6580
:10E2400064676500466C617368696E6720636F6D13
:10E25000706C657465005061636B6574206C656EED
:10E260006774682061646A757374656420746F20D4
:10E270000057726974696E67206461746120667208
:10E280006F6D20616464726573732000466C617306
:10E29000682069732066756C6C004368616E676501
:10E2A0006420746F20706F72742000446174612068
:10E2B000626C6F636B00577269746520726571756B
:10E2C000657374005265616420726571756573745D
:10E2D0000020616E642064617461206C656E6774F7
:10E2E0006820002077697468206F70636F64652010
:10E2F000005468697320697320626C6F636B20003F
:10E300005365742075702072657475726E20616437
:10E310006472657373004F766572666C6F77005038
:10E32000726F63657373696E67207061636B657488
:10E33000206F662073697A652000546674703A20F5
:10E340000020696E7374656164206F6620307839CF
:10E35000340020696E7374656164206F66203078C4
:10E36000304300207769746820004661696C6564F9
:10E37000206174200056616C696420696D61676575
:10E380000056616C643A20003078000D0A001124B8
:10E390001FBECFEFD1E2DEBFCDBF01E00CBF12E068
:10E3A000A0E0B2E0E0EBF0EF03E00BBF02C00790AB
:10E3B0000D92A032B107D9F71BBE12E0A0E2B2E085
:10E3C00001C01D92AC32B107E1F701D06FC614BE97
:10E3D00088E10FB6F89480936000109260000FBE41
:10E3E0008FEF95EAAEE081509040A040E1F700C089
:10E3F0000000112485E08093810080E090E040D609
:10E40000882321F080E090E060E042D681E090E057
:10E4100037D6843021F081E090E064E039D68EE395
:10E4200090E02ED6813039F04D9B05C082E090E01F
:10E4300027D68E3E31F08EE390E060E029D6C1E031
:10E4400002C011D6C0E09ED58DE191EE63EF70EE73
:10E450003FD594D0A0D089D310922A0210922B02DB
:10E46000D3E0CC24DD24760180912A02882319F49C
:10E47000B1D38823D1F0E0D58823A9F0C13099F039
:10E4800082E090E0FDD58E3E81F080912B028130BC
:10E4900051F4F601E0925B00D0935700E89565D304
:10E4A000C2D510922B029ED5DFCF88E18093600009
:10E4B0008CE080936000FFCFA3CD20E52CBD2C988D
:10E4C00020EF2EBD0DB407FEFDCF292F33272EBD23
:10E4D0000DB407FEFDCF8EBD0DB407FEFDCF4EBDC2
:10E4E0000DB407FEFDCF2C9A1CBC0895EF92FF924D
:10E4F0001F93CF93DF93EC01162F7A01452F5527F9
:10E50000DCDFCE010196612F4E2DD7DFDF91CF9159
:10E510001F91FF90EF90089520E52CBD2C982FE0DF
:10E520002EBD0DB407FEFDCF292F33272EBD0DB410
:10E5300007FEFDCF8EBD0DB407FEFDCF1EBC0DB492
:10E5400007FEFDCF2C9A8EB51CBC08950F931F9328
:10E55000CF93DF93EC01162FDFDF082FCE0101965A
:10E56000612FDADF202F30E0322F222790E0822B3C
:10E57000932BDF91CF911F910F9108958FE085B973
:10E5800087E084B92C9A249AA59A9D9A2F9A279A63
:10E5900081E08DBD08950F931F93CF93DF9383E0A8
:10E5A00090E06ED58535B9F484E090E069D58A3A7B
:10E5B00091F401E012E0C5E0D0E0CE0161D5F801B0
:10E5C00081938F012196C731D105B9F784E891EE87
:10E5D00064E771EE04C084E891EE62E671EE78D4EF
:10E5E00084E891EE67E571EE73D4CFE0D2E01FE0EE
:10E5F000699170E080E090E042E09CD4123111F02B
:10E600008EE2CDD41F5F133199F784E891EE6CE46C
:10E6100071EE5ED4C5E0D2E015E0699170E080E073
:10E6200090E042E087D4183011F08EE2B8D41F5F3A
:10E63000193099F784E891EE61E471EE49D4C1E0B4
:10E64000D2E001E0699170E080E090E042E072D4B5
:10E65000043011F08EE2A3D40F5F053099F784E8FF
:10E6600091EE66E371EE34D4C9E0D2E0699170E0D6
:10E6700080E090E042E05ED41E3011F08EE28FD454
:10E680001F5F1F3099F700E012E0C0E0D0E0F80112
:10E6900041918F01CE0160E010DF2196CC31D10590
:10E6A000B1F784E891EE64E271EE12D4DF91CF917C
:10E6B0001F910F910895CF93DF93EC018AE393EEBE
:10E6C00065EC71EE05D4BE0180E090E044E032D408
:10E6D00081E097E06CE640E1F0DE81E097E068E6FB
:10E6E0001BDF8823D1F782E097E06CE64FEFE5DE91
:10E6F00080E097E06CE642E0E0DE84E097E06CE6E4
:10E70000AE01F4DE81E097E06CE641E0D6DE81E028
:10E7100097E068E601DF8823D1F783E097E068E6B9
:10E72000FBDE823229F081E097E06CE640E1C5DE55
:10E7300083E097E068E6F0DE8232A9F6DF91CF91C0
:10E7400008952F923F924F925F926F927F928F9295
:10E750009F92AF92BF92CF92DF92EF92FF920F9370
:10E760001F93CF93DF93CDB7DEB7CC50D240DEBF3F
:10E77000CDBF8C018AE393EE6FE173EEA9D3B801AC
:10E7800080E090E044E0D6D328E00030120728F083
:10E790008AE393EE66E173EE9BD388E297E068E646
:10E7A000D5DEAC01009711F440E058E76DE0C62ECD
:10E7B00062E0D62ECC0EDD1E7E010894E11CF11C19
:10E7C00010C08A010F5F1F4FCA0160E0A5DEF7018C
:10E7D00081937F01F0E800301F0711F400E018E793
:10E7E000A801EC14FD0469F788E297E06CE67EDE90
:10E7F00081E097E06CE640E460DE81E097E068E667
:10E800008BDE8823D1F78E010F5F1F4F3CE0E32E94
:10E8100037E0F32EF80141918F01C7016CE64DDE20
:10E820000894E11CF11CF2E1EF16F7E0FF0691F706
:10E830008AE393EE60E073EE4BD3CF80DD24DC2CD3
:10E84000CC248885C80ED11C098510E0102F002724
:10E850008A85080F111DEB84FF24FE2CEE248C8585
:10E86000E80EF11C8AE393EE61EF72EE31D3B7014B
:10E8700080E090E044E05ED383EE92EE00D3B801F6
:10E8800080E090E044E056D381ED92EEF8D22CEF98
:10E89000622E2FEF722E6C0C7D1C4301AA24BB2428
:10E8A000C501B40144E046D30330110591F429EFCA
:10E8B000E21621E0F20658F48091200290912102A4
:10E8C000E816F90620F001968E159F0510F400E079
:10E8D00010E035E0C31632E0D30608F01CC1033067
:10E8E000110509F43FC00430110540F40130110551
:10E8F00071F00230110509F010C10EC0043011058D
:10E9000009F4FDC00530110509F007C1FFC08AE315
:10E9100093EE64EC72EEF7C086D38AE393EE66EB77
:10E9200072EED6D282E090E06FEFB2D380912802EF
:10E9300090912902C0DE8AE393EE6AE972EEC8D2B2
:10E94000609128027091290280E090E044E0F2D2C8
:10E9500010922102109220021092230210922202A1
:10E9600002E0EBC060D38AE393EE6BEA72EEB0D2C2
:10E97000F0922302E0922202C70101976C01EE247B
:10E98000FF2459E0CC0CDD1CEE1CFF1C5A95D1F77E
:10E990002FEF3FEF40E050E0C222D322E422F522E5
:10E9A000880F892F881F990B9195A0E0B0E0DC01BA
:10E9B00099278827C82AD92AEA2AFB2A8C0C9D1C69
:10E9C000AE1CBF1C8AE393EE31E0831630EF930652
:10E9D00033E0A30630E0B30628F06CE872EE78D29C
:10E9E00003E0ABC061E772EE73D2C701B60146E047
:10E9F000A1D240E0641642E0740610F404E005C0C1
:10EA000002E003C00894611C711C6620D9F78AE3F8
:10EA100093EE66E572EE5CD2B30180E090E044E0F4
:10EA200089D2C114D104E104F10419F4CE010D9688
:10EA3000BED1BEE0AB2EB12CAC0EBD1E20E030E04E
:10EA400011E0212C8FEF382E8FEF482E8FEF582EAC
:10EA50002C0C3D1C4E1C5F1C93E0892E45E0942E2F
:10EA60003EC0A90160E070E04C0D5D1D6E1D7F1D74
:10EA7000F501808190E0B82FAA273197808190E03E
:10EA8000A82BB92B0D01FA0160935B00109357007E
:10EA9000E89511242E5F3F4F2223E9F4C901A0E03D
:10EAA000B0E0820D931DA41DB51DFC01A0935B0079
:10EAB00080925700E89507B600FCFDCFFC01A093BB
:10EAC0005B0090925700E89507B600FCFDCFF1E19E
:10EAD000F0935700E89542E050E0A40EB51E2615CD
:10EAE000370508F4BECF043041F58AE393EE64E4C1
:10EAF00072EEEED182E090E06EEECAD21EC08AE3E2
:10EB000093EE68E372EEE4D100E017C08AE393EE7F
:10EB100062E372EEF8CF00E010E08AE393EE62E287
:10EB200072EED6D1B80180E090E044E003D280914B
:10EB3000280290912902BFDD01E0802FC45FDD4FE4
:10EB4000DEBFCDBFDF91CF911F910F91FF90EF906E
:10EB5000DF90CF90BF90AF909F908F907F906F90FD
:10EB60005F904F903F902F900895CF9385E490E071
:10EB7000A2DD87E190E084D28B3B91F489E190E0C3
:10EB80007FD2C82F88E190E07BD22C2F30E0322F4B
:10EB90002227280F311D309329022093280206C016
:10EBA00089E797EB90932902809328028AE393EEFA
:10EBB00066EE71EE8DD18AE393EE6AED71EE88D147
:10EBC000609128027091290280E090E044E0B2D187
:10EBD000CF910895AF92BF92CF92DF92FF920F93A1
:10EBE0001F93CF93DF93CDB7DEB7C556D040DEBFBE
:10EBF000CDBF86E297E068E6A9DC009709F4C8C0BB
:10EC000081E080932B020EC082E097E06CE644E046
:10EC100054DC8FEF97E8A3E181509040A040E1F7EA
:10EC200000C0000082E097E068E676DC82FDECCF71
:10EC300086E297E068E68ADC84DDF82E84E297E0DD
:10EC400060E084DCA12CF8E5BF2EA80EB91E92E08E
:10EC5000F91609F43EC09F1520F0A1E0FA1641F420
:10EC60001AC0B3E0FB1631F1E4E0FE1609F445C02A
:10EC700043EA51EE60E070E0405050406D4F7F4FEE
:10EC8000CE0101962AE030E0F2D12AE06E0108942C
:10EC9000C11CD11C42C048EB51EE60E070E0405016
:10ECA00050406D4F7F4FCE0101962CE030E0DFD118
:10ECB0002CE0ECCF4EEA51EE60E070E04050504066
:10ECC0006D4F7F4FCE01019629E030E0D0D129E091
:10ECD000DDCF809122029091230220912002309179
:10ECE00021022817390720F49093210280932002F3
:10ECF0008AE393EE69E172EE04C08AE393EE6AE080
:10ED000072EEE6D0198284E08A838091220290918B
:10ED100023029B838C8324E0B9CF85010F5F1F4FB3
:10ED2000D6014D916D01C50164E7A6962FAFA69758
:10ED3000C4DBA6962FADA697B0E600301B0711F0F6
:10ED4000580103C0A12CE8E5BE2E215031F7A501E2
:10ED50004050584584E297E06CE6C8DB81E097E0DC
:10ED60006CE640E2AADB81E097E068E6D5DB882329
:10ED7000D1F78AE393EE6CEF71EEAAD0E4E0FE16D1
:10ED800039F481E097E06CE640E197DB80E001C078
:10ED900081E0CB59DF4FDEBFCDBFDF91CF911F9117
:10EDA0000F91FF90DF90CF90BF90AF900895EF92BA
:10EDB000FF920F931F93CF93DF930F92CDB7DEB7E0
:10EDC0007C018C010F5F1F4F20E0F70180818C30A8
:10EDD000D1F081E893EE6AE673EE298379D0298138
:10EDE000622F70E080E090E044E0A4D083E693EEF0
:10EDF00046D0F701608170E080E090E044E09AD076
:10EE000082E593EE21C0F8018081843901F181E827
:10EE100093EE6AE673EE29835BD02981622F70E05E
:10EE20006F5F7F4F882777FD8095982F44E082D0D1
:10EE300083E693EE24D0F801608170E080E090E0FA
:10EE400044E078D081E493EE1AD080E010C02C5FCB
:10EE500084E090E0E80EF91E0C5F1F4F243309F0A8
:10EE6000B4CF81E893EE65E773EE32D081E00F9086
:10EE7000DF91CF911F910F91FF90EF900895CF9266
:10EE8000DF92EF92FF92CF93DF93C0E06C01EE240C
:10EE9000FF2480E090E0A3E0B0E0C80ED91EEA1E97
:10EEA000FB1ED701C6018C0F911DA11DB11DABBF6B
:10EEB000FC01D791DD2311F08D2F71D0CF5FDD23C1
:10EEC00081F7DF91CF91FF90EF90DF90CF90089581
:10EED0000F931F93CF93DF938C01EB018BE893EE9D
:10EEE000CEDFC801CCDFCE01CADFDF91CF911F9109
:10EEF0000F910895CF93DF93EC018881882311F45B
:10EF000004C04DD089918823E1F7DF91CF91089516
:10EF10000F931F93CF93DF938C01EB018BE893EE5C
:10EF2000AEDFC801ACDFCE01E5DFDF91CF911F91ED
:10EF30000F910895CF92DF92EF92FF92CF936B01E2
:10EF40007C01C42F88E893EE9ADF14C08C2F90E0E8
:10EF50000197880F991F880F991FA701960104C078
:10EF600056954795379527958A95D2F7DA01C901C5
:10EF70001DD0C150CC2351F7CF91FF90EF90DF907F
:10EF8000CF90089582E08093C00088E18093C10013
:10EF900086E08093C20080E18093C4000895909140
:10EFA000C00095FFFCCF8093C60008958F708A3013
:10EFB00008F0895F805DF3CF8091C00087FFFCCFB0
:10EFC0008091C00084FD01C0A8958091C60008957D
:10EFD0008091C00087FF04C026D081E080932A0280
:10EFE00081E00895809184009091850092FF04C093
:10EFF00025B1205825B901C02F98209124023091C5
:10F0000025028217930750F420912602309127029F
:10F010002F5F3F4F309327022093260290932502C3
:10F02000809324020895109285001092840010921B
:10F03000270210922602089580E090E0DC01ABBF29
:10F04000FC01879196912FEF8F3F920751F081E05D
:10F0500020912602309127022530310518F480E0F6
:10F06000089580E00895EE27FF2709940895FA0196
:10F07000DC0102C005900D9221503040D8F7089570
:10F08000F999FECF92BD81BDF89A992780B5089570
:10F09000262FF999FECF1FBA92BD81BD20BD0FB6B4
:10F0A000F894FA9AF99A0FBE01960895F894FFCF52
:10F0B00080C0A85401FFFFFF00DEADBEEFFEEDC033
:10F0C000A854800000000007D08055550F020A00A8
:040000033000E000E9
:00000001FF
